{
  "contractName": "AcceptedScoreOracle",
  "abi": [
    {
      "constant": true,
      "inputs": [],
      "name": "totalVotes",
      "outputs": [
        {
          "name": "",
          "type": "uint256"
        }
      ],
      "payable": false,
      "stateMutability": "view",
      "type": "function"
    },
    {
      "constant": true,
      "inputs": [],
      "name": "affirmations",
      "outputs": [
        {
          "name": "",
          "type": "uint256"
        }
      ],
      "payable": false,
      "stateMutability": "view",
      "type": "function"
    },
    {
      "constant": true,
      "inputs": [],
      "name": "winsReported",
      "outputs": [
        {
          "name": "",
          "type": "uint256"
        }
      ],
      "payable": false,
      "stateMutability": "view",
      "type": "function"
    },
    {
      "constant": false,
      "inputs": [],
      "name": "accept",
      "outputs": [],
      "payable": false,
      "stateMutability": "nonpayable",
      "type": "function"
    },
    {
      "constant": true,
      "inputs": [
        {
          "name": "",
          "type": "uint256"
        },
        {
          "name": "",
          "type": "uint256"
        }
      ],
      "name": "squareWins",
      "outputs": [
        {
          "name": "",
          "type": "uint256"
        }
      ],
      "payable": false,
      "stateMutability": "view",
      "type": "function"
    },
    {
      "constant": true,
      "inputs": [],
      "name": "votingPeriodBlockNumber",
      "outputs": [
        {
          "name": "",
          "type": "uint256"
        }
      ],
      "payable": false,
      "stateMutability": "view",
      "type": "function"
    },
    {
      "constant": false,
      "inputs": [
        {
          "name": "affirm",
          "type": "bool"
        }
      ],
      "name": "vote",
      "outputs": [],
      "payable": false,
      "stateMutability": "nonpayable",
      "type": "function"
    },
    {
      "constant": false,
      "inputs": [],
      "name": "finalize",
      "outputs": [],
      "payable": false,
      "stateMutability": "nonpayable",
      "type": "function"
    },
    {
      "constant": false,
      "inputs": [
        {
          "name": "_voterStakes",
          "type": "address"
        }
      ],
      "name": "setVoterStakesContract",
      "outputs": [],
      "payable": false,
      "stateMutability": "nonpayable",
      "type": "function"
    },
    {
      "constant": true,
      "inputs": [],
      "name": "accepted",
      "outputs": [
        {
          "name": "",
          "type": "bool"
        }
      ],
      "payable": false,
      "stateMutability": "view",
      "type": "function"
    },
    {
      "constant": false,
      "inputs": [
        {
          "name": "home",
          "type": "uint256"
        },
        {
          "name": "away",
          "type": "uint256"
        },
        {
          "name": "wins",
          "type": "uint256"
        }
      ],
      "name": "setSquareWins",
      "outputs": [],
      "payable": false,
      "stateMutability": "nonpayable",
      "type": "function"
    },
    {
      "constant": true,
      "inputs": [],
      "name": "VOTING_PERIOD_DURATION",
      "outputs": [
        {
          "name": "",
          "type": "uint256"
        }
      ],
      "payable": false,
      "stateMutability": "view",
      "type": "function"
    },
    {
      "constant": true,
      "inputs": [],
      "name": "isFinalized",
      "outputs": [
        {
          "name": "",
          "type": "bool"
        }
      ],
      "payable": false,
      "stateMutability": "view",
      "type": "function"
    },
    {
      "constant": true,
      "inputs": [],
      "name": "owner",
      "outputs": [
        {
          "name": "",
          "type": "address"
        }
      ],
      "payable": false,
      "stateMutability": "view",
      "type": "function"
    },
    {
      "constant": true,
      "inputs": [],
      "name": "voterStakes",
      "outputs": [
        {
          "name": "",
          "type": "address"
        }
      ],
      "payable": false,
      "stateMutability": "view",
      "type": "function"
    },
    {
      "constant": true,
      "inputs": [],
      "name": "finalized",
      "outputs": [
        {
          "name": "",
          "type": "bool"
        }
      ],
      "payable": false,
      "stateMutability": "view",
      "type": "function"
    },
    {
      "constant": true,
      "inputs": [],
      "name": "SCORE_REPORT_START_TIME",
      "outputs": [
        {
          "name": "",
          "type": "uint256"
        }
      ],
      "payable": false,
      "stateMutability": "view",
      "type": "function"
    },
    {
      "constant": false,
      "inputs": [],
      "name": "unfinalize",
      "outputs": [],
      "payable": false,
      "stateMutability": "nonpayable",
      "type": "function"
    },
    {
      "constant": true,
      "inputs": [],
      "name": "TOTAL_WINS",
      "outputs": [
        {
          "name": "",
          "type": "uint256"
        }
      ],
      "payable": false,
      "stateMutability": "view",
      "type": "function"
    },
    {
      "constant": true,
      "inputs": [],
      "name": "currentTime",
      "outputs": [
        {
          "name": "",
          "type": "uint256"
        }
      ],
      "payable": false,
      "stateMutability": "view",
      "type": "function"
    },
    {
      "constant": true,
      "inputs": [
        {
          "name": "home",
          "type": "uint256"
        },
        {
          "name": "away",
          "type": "uint256"
        }
      ],
      "name": "getSquareWins",
      "outputs": [
        {
          "name": "numSquareWins",
          "type": "uint256"
        },
        {
          "name": "totalWins",
          "type": "uint256"
        }
      ],
      "payable": false,
      "stateMutability": "view",
      "type": "function"
    },
    {
      "constant": true,
      "inputs": [],
      "name": "votingPeriodStartTime",
      "outputs": [
        {
          "name": "",
          "type": "uint256"
        }
      ],
      "payable": false,
      "stateMutability": "view",
      "type": "function"
    },
    {
      "constant": true,
      "inputs": [],
      "name": "GAME_START_TIME",
      "outputs": [
        {
          "name": "",
          "type": "uint256"
        }
      ],
      "payable": false,
      "stateMutability": "view",
      "type": "function"
    },
    {
      "constant": false,
      "inputs": [
        {
          "name": "newOwner",
          "type": "address"
        }
      ],
      "name": "transferOwnership",
      "outputs": [],
      "payable": false,
      "stateMutability": "nonpayable",
      "type": "function"
    },
    {
      "anonymous": false,
      "inputs": [
        {
          "indexed": false,
          "name": "time",
          "type": "uint256"
        }
      ],
      "name": "LogAccepted",
      "type": "event"
    },
    {
      "anonymous": false,
      "inputs": [
        {
          "indexed": false,
          "name": "time",
          "type": "uint256"
        }
      ],
      "name": "LogUnfinalized",
      "type": "event"
    },
    {
      "anonymous": false,
      "inputs": [
        {
          "indexed": true,
          "name": "voter",
          "type": "address"
        },
        {
          "indexed": true,
          "name": "affirm",
          "type": "bool"
        },
        {
          "indexed": false,
          "name": "stake",
          "type": "uint256"
        }
      ],
      "name": "LogVote",
      "type": "event"
    },
    {
      "anonymous": false,
      "inputs": [
        {
          "indexed": false,
          "name": "home",
          "type": "uint256"
        },
        {
          "indexed": false,
          "name": "away",
          "type": "uint256"
        },
        {
          "indexed": false,
          "name": "wins",
          "type": "uint256"
        }
      ],
      "name": "LogSquareWinsUpdated",
      "type": "event"
    },
    {
      "anonymous": false,
      "inputs": [
        {
          "indexed": false,
          "name": "time",
          "type": "uint256"
        }
      ],
      "name": "LogFinalized",
      "type": "event"
    },
    {
      "anonymous": false,
      "inputs": [
        {
          "indexed": true,
          "name": "previousOwner",
          "type": "address"
        },
        {
          "indexed": true,
          "name": "newOwner",
          "type": "address"
        }
      ],
      "name": "OwnershipTransferred",
      "type": "event"
    }
  ],
  "bytecode": "0x60606040526000600155336000806101000a81548173ffffffffffffffffffffffffffffffffffffffff021916908373ffffffffffffffffffffffffffffffffffffffff16021790555061124c806100586000396000f30060606040526004361061013e576000357c0100000000000000000000000000000000000000000000000000000000900463ffffffff1680630d15fd771461014357806312a2716d1461016c57806316b07323146101955780632852b71c146101be578063395382ee146101d3578063466df592146102135780634b9f5c981461023c5780634bb278f3146102615780636080af051461027657806367fe5a0c146102af5780636bceead7146102dc57806382a3f98d146103115780638d4e40831461033a5780638da5cb5b14610367578063b033cab9146103bc578063b3f05b9714610411578063bd06e7771461043e578063c0b39e6814610467578063cbb451201461047c578063d18e81b3146104a5578063d5a8487f146104ce578063e55a6ef614610515578063ebb855021461053e578063f2fde38b14610567575b600080fd5b341561014e57600080fd5b6101566105a0565b6040518082815260200191505060405180910390f35b341561017757600080fd5b61017f6105a6565b6040518082815260200191505060405180910390f35b34156101a057600080fd5b6101a86105ac565b6040518082815260200191505060405180910390f35b34156101c957600080fd5b6101d16105b2565b005b34156101de57600080fd5b6101fd600480803590602001909190803590602001909190505061069e565b6040518082815260200191505060405180910390f35b341561021e57600080fd5b6102266106ca565b6040518082815260200191505060405180910390f35b341561024757600080fd5b61025f600480803515159060200190919050506106d0565b005b341561026c57600080fd5b6102746109f0565b005b341561028157600080fd5b6102ad600480803573ffffffffffffffffffffffffffffffffffffffff16906020019091905050610a7a565b005b34156102ba57600080fd5b6102c2610b76565b604051808215151515815260200191505060405180910390f35b34156102e757600080fd5b61030f6004808035906020019091908035906020019091908035906020019091905050610b89565b005b341561031c57600080fd5b610324610d75565b6040518082815260200191505060405180910390f35b341561034557600080fd5b61034d610d7c565b604051808215151515815260200191505060405180910390f35b341561037257600080fd5b61037a610da3565b604051808273ffffffffffffffffffffffffffffffffffffffff1673ffffffffffffffffffffffffffffffffffffffff16815260200191505060405180910390f35b34156103c757600080fd5b6103cf610dc8565b604051808273ffffffffffffffffffffffffffffffffffffffff1673ffffffffffffffffffffffffffffffffffffffff16815260200191505060405180910390f35b341561041c57600080fd5b610424610dee565b604051808215151515815260200191505060405180910390f35b341561044957600080fd5b610451610e01565b6040518082815260200191505060405180910390f35b341561047257600080fd5b61047a610e0e565b005b341561048757600080fd5b61048f610ef7565b6040518082815260200191505060405180910390f35b34156104b057600080fd5b6104b8610efc565b6040518082815260200191505060405180910390f35b34156104d957600080fd5b6104f86004808035906020019091908035906020019091905050610f04565b604051808381526020018281526020019250505060405180910390f35b341561052057600080fd5b610528610f36565b6040518082815260200191505060405180910390f35b341561054957600080fd5b610551610f3c565b6040518082815260200191505060405180910390f35b341561057257600080fd5b61059e600480803573ffffffffffffffffffffffffffffffffffffffff16906020019091905050610f44565b005b606b5481565b606a5481565b60015481565b606660009054906101000a900460ff1615156105cd57600080fd5b62093a80606754016105dd610efc565b101515156105ea57600080fd5b606960009054906101000a900460ff1615151561060657600080fd5b6201046a610636606b54610628620186a0606a5461109990919063ffffffff16565b6110d490919063ffffffff16565b1015151561064357600080fd5b6001606960006101000a81548160ff0219169083151502179055507f7202997eccc0ae4840bfa4c3057174b183764660915136057273aeafe7ad9788610687610efc565b6040518082815260200191505060405180910390a1565b600282600a811015156106ad57fe5b600a020181600a811015156106be57fe5b01600091509150505481565b60685481565b6000806000606754141515156106e557600080fd5b606660009054906101000a900460ff16151561070057600080fd5b606960009054906101000a900460ff1615151561071c57600080fd5b606d60009054906101000a900473ffffffffffffffffffffffffffffffffffffffff1673ffffffffffffffffffffffffffffffffffffffff1663fb4460dd336068546000604051602001526040518363ffffffff167c0100000000000000000000000000000000000000000000000000000000028152600401808373ffffffffffffffffffffffffffffffffffffffff1673ffffffffffffffffffffffffffffffffffffffff16815260200182815260200192505050602060405180830381600087803b15156107eb57600080fd5b6102c65a03f115156107fc57600080fd5b50505060405180519050915060008211151561081757600080fd5b606c6000606854815260200190815260200160002060003373ffffffffffffffffffffffffffffffffffffffff1673ffffffffffffffffffffffffffffffffffffffff16815260200190815260200160002090508060000160019054906101000a900460ff1615156108fe5760018160000160016101000a81548160ff021916908315150217905550828160000160006101000a81548160ff0219169083151502179055506108d182606b546110ef90919063ffffffff16565b606b8190555082156108f9576108f282606a546110ef90919063ffffffff16565b606a819055505b61099a565b82801561091a57508060000160009054906101000a900460ff16155b1561093f5761093482606a546110ef90919063ffffffff16565b606a8190555061097d565b8215801561095b57508060000160009054906101000a900460ff165b1561097c5761097582606a5461110d90919063ffffffff16565b606a819055505b5b828160000160006101000a81548160ff0219169083151502179055505b8215153373ffffffffffffffffffffffffffffffffffffffff167f33756534de162d89bcd9858cf7ce9e7b00e56d9b7785a1b19d6fb0498d49c832846040518082815260200191505060405180910390a3505050565b6000809054906101000a900473ffffffffffffffffffffffffffffffffffffffff1673ffffffffffffffffffffffffffffffffffffffff163373ffffffffffffffffffffffffffffffffffffffff16141515610a4b57600080fd5b610a53611126565b6000606a819055506000606b81905550610a6b610efc565b60678190555043606881905550565b6000809054906101000a900473ffffffffffffffffffffffffffffffffffffffff1673ffffffffffffffffffffffffffffffffffffffff163373ffffffffffffffffffffffffffffffffffffffff16141515610ad557600080fd5b600073ffffffffffffffffffffffffffffffffffffffff16606d60009054906101000a900473ffffffffffffffffffffffffffffffffffffffff1673ffffffffffffffffffffffffffffffffffffffff16141515610b3257600080fd5b80606d60006101000a81548173ffffffffffffffffffffffffffffffffffffffff021916908373ffffffffffffffffffffffffffffffffffffffff16021790555050565b606960009054906101000a900460ff1681565b60008060009054906101000a900473ffffffffffffffffffffffffffffffffffffffff1673ffffffffffffffffffffffffffffffffffffffff163373ffffffffffffffffffffffffffffffffffffffff16141515610be657600080fd5b838360008210158015610bf95750600a82105b1515610c0457600080fd5b60008110158015610c155750600a81105b1515610c2057600080fd5b62015180635a77977801610c32610efc565b10151515610c3f57600080fd5b60048411151515610c4f57600080fd5b606660009054906101000a900460ff16151515610c6b57600080fd5b600286600a81101515610c7a57fe5b600a020185600a81101515610c8b57fe5b0154925083831115610cc957610cbe610cad858561110d90919063ffffffff16565b60015461110d90919063ffffffff16565b600181905550610d00565b83831015610cff57610cf8610ce7848661110d90919063ffffffff16565b6001546110ef90919063ffffffff16565b6001819055505b5b83600287600a81101515610d1057fe5b600a020186600a81101515610d2157fe5b01819055507ff05b854fc793f12856c5502dbf67bfbf1f80b60e7f6c0a70ea322a7046cc1b2a86868660405180848152602001838152602001828152602001935050505060405180910390a1505050505050565b62093a8081565b6000610d86611209565b8015610d9e5750606960009054906101000a900460ff165b905090565b6000809054906101000a900473ffffffffffffffffffffffffffffffffffffffff1681565b606d60009054906101000a900473ffffffffffffffffffffffffffffffffffffffff1681565b606660009054906101000a900460ff1681565b62015180635a7797780181565b606660009054906101000a900460ff161515610e2957600080fd5b606960009054906101000a900460ff16151515610e4557600080fd5b62093a8060675401610e55610efc565b10151515610e6257600080fd5b611a0a610e90606b54610e82612710606a5461109990919063ffffffff16565b6110d490919063ffffffff16565b101515610e9c57600080fd5b6000606660006101000a81548160ff0219169083151502179055507fed8e9f2c27ae2a0214e991ebbe05683b56a1db57428e4b29a08b02a40519feeb610ee0610efc565b6040518082815260200191505060405180910390a1565b600481565b600042905090565b600080600284600a81101515610f1657fe5b600a020183600a81101515610f2757fe5b01546004915091509250929050565b60675481565b635a77977881565b6000809054906101000a900473ffffffffffffffffffffffffffffffffffffffff1673ffffffffffffffffffffffffffffffffffffffff163373ffffffffffffffffffffffffffffffffffffffff16141515610f9f57600080fd5b600073ffffffffffffffffffffffffffffffffffffffff168173ffffffffffffffffffffffffffffffffffffffff1614151515610fdb57600080fd5b8073ffffffffffffffffffffffffffffffffffffffff166000809054906101000a900473ffffffffffffffffffffffffffffffffffffffff1673ffffffffffffffffffffffffffffffffffffffff167f8be0079c531659141344cd1fd0a4f28419497f9722a3daafe3b4186f6b6457e060405160405180910390a3806000806101000a81548173ffffffffffffffffffffffffffffffffffffffff021916908373ffffffffffffffffffffffffffffffffffffffff16021790555050565b60008060008414156110ae57600091506110cd565b82840290508284828115156110bf57fe5b041415156110c957fe5b8091505b5092915050565b60008082848115156110e257fe5b0490508091505092915050565b600080828401905083811015151561110357fe5b8091505092915050565b600082821115151561111b57fe5b818303905092915050565b6000809054906101000a900473ffffffffffffffffffffffffffffffffffffffff1673ffffffffffffffffffffffffffffffffffffffff163373ffffffffffffffffffffffffffffffffffffffff1614151561118157600080fd5b600460015414151561119257600080fd5b606660009054906101000a900460ff161515156111ae57600080fd5b6001606660006101000a81548160ff0219169083151502179055507f32e459b415103ae8dc9c4203aba7b51313bb22f6088ee399170c34fad08850376111f2610efc565b6040518082815260200191505060405180910390a1565b6000606660009054906101000a900460ff169050905600a165627a7a72305820a59addc96c35fcc980f5ca543c7a72466b9564e4fee9726dd1503923210e870c0029",
  "source": "pragma solidity 0.4.18;\n\nimport 'zeppelin-solidity/contracts/math/SafeMath.sol';\nimport './interfaces/IKnowsVoterStakes.sol';\nimport './OwnedScoreOracle.sol';\n\ncontract AcceptedScoreOracle is OwnedScoreOracle {\n    using SafeMath for uint;\n\n    // how long voters are given to affirm the score\n    uint public constant VOTING_PERIOD_DURATION = 1 weeks;\n\n    // when the voting period started\n    uint public votingPeriodStartTime;\n    // the block number when the voting period started\n    uint public votingPeriodBlockNumber;\n\n    // whether the voters have accepted the score as true\n    bool public accepted;\n\n    uint public affirmations;\n    uint public totalVotes;\n\n    struct Vote {\n        bool affirmed;\n        bool counted;\n    }\n\n    // for the voting period blcok number, these are the votes counted from each address\n    mapping(uint => mapping(address => Vote)) votes;\n\n    IKnowsVoterStakes public voterStakes;\n\n    // only once, the voter stakes can be set by the owner, to allow us to deploy a circular dependency\n    function setVoterStakesContract(IKnowsVoterStakes _voterStakes) public onlyOwner {\n        require(address(voterStakes) == address(0));\n        voterStakes = _voterStakes;\n    }\n\n    // start the acceptance period\n    function finalize() public onlyOwner {\n        super.finalize();\n\n        // start the voting period immediately\n        affirmations = 0;\n        totalVotes = 0;\n        votingPeriodStartTime = currentTime();\n        votingPeriodBlockNumber = block.number;\n    }\n\n    event LogAccepted(uint time);\n\n    // anyone can call this if the score is finalized and not accepted\n    function accept() public {\n        // score is finalized\n        require(finalized);\n\n        // voting period is over\n        require(currentTime() >= votingPeriodStartTime + VOTING_PERIOD_DURATION);\n\n        // score is not already accepted as truth\n        require(!accepted);\n\n        // require 66.666% majority of voters affirmed the score\n        require(affirmations.mul(100000).div(totalVotes) >= 66666);\n\n        // score is accepted as truth\n        accepted = true;\n\n        LogAccepted(currentTime());\n    }\n\n    event LogUnfinalized(uint time);\n\n    // called when the voting period ends with a minority\n    function unfinalize() public {\n        // score is finalized\n        require(finalized);\n\n        // however it's not accepted\n        require(!accepted);\n\n        // and the voting period for the score has ended\n        require(currentTime() >= votingPeriodStartTime + VOTING_PERIOD_DURATION);\n\n        // require people to have\n        require(affirmations.mul(10000).div(totalVotes) < 6666);\n\n        // score is no longer finalized\n        finalized = false;\n\n        LogUnfinalized(currentTime());\n    }\n\n    event LogVote(address indexed voter, bool indexed affirm, uint stake);\n\n    // vote to affirm or unaffirm the score called by a user that has some stake\n    function vote(bool affirm) public {\n        // the voting period has started\n        require(votingPeriodStartTime != 0);\n\n        // the score is finalized\n        require(finalized);\n\n        // the score is not accepted\n        require(!accepted);\n\n        uint stake = voterStakes.getVoterStakes(msg.sender, votingPeriodBlockNumber);\n\n        // user has some stake\n        require(stake > 0);\n\n        Vote storage userVote = votes[votingPeriodBlockNumber][msg.sender];\n\n        // vote has not been counted, so\n        if (!userVote.counted) {\n            userVote.counted = true;\n            userVote.affirmed = affirm;\n\n            totalVotes = totalVotes.add(stake);\n            if (affirm) {\n                affirmations = affirmations.add(stake);\n            }\n        } else {\n            // changing their vote to an affirmation\n            if (affirm && !userVote.affirmed) {\n                affirmations = affirmations.add(stake);\n            } else if (!affirm && userVote.affirmed) {\n                // changing their vote to a disaffirmation\n                affirmations = affirmations.sub(stake);\n            }\n            userVote.affirmed = affirm;\n        }\n\n        LogVote(msg.sender, affirm, stake);\n    }\n\n    function isFinalized() public view returns (bool) {\n        return super.isFinalized() && accepted;\n    }\n}\n",
  "sourcePath": "/home/moody/projects/ethersquares-contracts/contracts/AcceptedScoreOracle.sol",
  "compiler": {
    "name": "solc",
    "version": "0.4.18+commit.9cf6e910.Emscripten.clang"
  },
  "schemaVersion": "1.0.1",
  "updatedAt": "2018-01-18T03:39:21.303Z"
}