{
  "contractName": "Boxes",
  "abi": [
    {
      "constant": true,
      "inputs": [],
      "name": "FEE_PERCENTAGE",
      "outputs": [
        {
          "name": "",
          "type": "uint256"
        }
      ],
      "payable": false,
      "stateMutability": "view",
      "type": "function"
    },
    {
      "constant": true,
      "inputs": [
        {
          "name": "",
          "type": "address"
        },
        {
          "name": "",
          "type": "uint256"
        },
        {
          "name": "",
          "type": "uint256"
        }
      ],
      "name": "boxStakesByUser",
      "outputs": [
        {
          "name": "",
          "type": "uint256"
        }
      ],
      "payable": false,
      "stateMutability": "view",
      "type": "function"
    },
    {
      "constant": false,
      "inputs": [
        {
          "name": "home",
          "type": "uint256"
        },
        {
          "name": "away",
          "type": "uint256"
        }
      ],
      "name": "bet",
      "outputs": [],
      "payable": true,
      "stateMutability": "payable",
      "type": "function"
    },
    {
      "constant": false,
      "inputs": [
        {
          "name": "winner",
          "type": "address"
        },
        {
          "name": "home",
          "type": "uint256"
        },
        {
          "name": "away",
          "type": "uint256"
        }
      ],
      "name": "sendWinningsTo",
      "outputs": [],
      "payable": false,
      "stateMutability": "nonpayable",
      "type": "function"
    },
    {
      "constant": true,
      "inputs": [],
      "name": "owner",
      "outputs": [
        {
          "name": "",
          "type": "address"
        }
      ],
      "payable": false,
      "stateMutability": "view",
      "type": "function"
    },
    {
      "constant": true,
      "inputs": [
        {
          "name": "",
          "type": "uint256"
        },
        {
          "name": "",
          "type": "uint256"
        }
      ],
      "name": "totalBoxStakes",
      "outputs": [
        {
          "name": "",
          "type": "uint256"
        }
      ],
      "payable": false,
      "stateMutability": "view",
      "type": "function"
    },
    {
      "constant": true,
      "inputs": [],
      "name": "payee",
      "outputs": [
        {
          "name": "",
          "type": "address"
        }
      ],
      "payable": false,
      "stateMutability": "view",
      "type": "function"
    },
    {
      "constant": true,
      "inputs": [],
      "name": "NUM_QUARTERS",
      "outputs": [
        {
          "name": "",
          "type": "uint8"
        }
      ],
      "payable": false,
      "stateMutability": "view",
      "type": "function"
    },
    {
      "constant": true,
      "inputs": [],
      "name": "totalStakes",
      "outputs": [
        {
          "name": "",
          "type": "uint256"
        }
      ],
      "payable": false,
      "stateMutability": "view",
      "type": "function"
    },
    {
      "constant": true,
      "inputs": [
        {
          "name": "",
          "type": "uint256"
        },
        {
          "name": "",
          "type": "uint256"
        }
      ],
      "name": "boxQuartersWon",
      "outputs": [
        {
          "name": "",
          "type": "uint8"
        }
      ],
      "payable": false,
      "stateMutability": "view",
      "type": "function"
    },
    {
      "constant": true,
      "inputs": [],
      "name": "currentTime",
      "outputs": [
        {
          "name": "",
          "type": "uint256"
        }
      ],
      "payable": false,
      "stateMutability": "view",
      "type": "function"
    },
    {
      "constant": true,
      "inputs": [],
      "name": "GAME_START_TIME",
      "outputs": [
        {
          "name": "",
          "type": "uint256"
        }
      ],
      "payable": false,
      "stateMutability": "view",
      "type": "function"
    },
    {
      "constant": false,
      "inputs": [
        {
          "name": "home",
          "type": "uint256"
        },
        {
          "name": "away",
          "type": "uint256"
        }
      ],
      "name": "collectWinnings",
      "outputs": [],
      "payable": false,
      "stateMutability": "nonpayable",
      "type": "function"
    },
    {
      "constant": false,
      "inputs": [
        {
          "name": "newOwner",
          "type": "address"
        }
      ],
      "name": "transferOwnership",
      "outputs": [],
      "payable": false,
      "stateMutability": "nonpayable",
      "type": "function"
    },
    {
      "constant": false,
      "inputs": [
        {
          "name": "home",
          "type": "uint256"
        },
        {
          "name": "away",
          "type": "uint256"
        }
      ],
      "name": "reportWinner",
      "outputs": [],
      "payable": false,
      "stateMutability": "nonpayable",
      "type": "function"
    },
    {
      "inputs": [
        {
          "name": "_payee",
          "type": "address"
        }
      ],
      "payable": false,
      "stateMutability": "nonpayable",
      "type": "constructor"
    },
    {
      "anonymous": false,
      "inputs": [
        {
          "indexed": true,
          "name": "better",
          "type": "address"
        },
        {
          "indexed": true,
          "name": "home",
          "type": "uint256"
        },
        {
          "indexed": true,
          "name": "away",
          "type": "uint256"
        },
        {
          "indexed": false,
          "name": "stake",
          "type": "uint256"
        },
        {
          "indexed": false,
          "name": "fee",
          "type": "uint256"
        }
      ],
      "name": "LogBet",
      "type": "event"
    },
    {
      "anonymous": false,
      "inputs": [
        {
          "indexed": true,
          "name": "winner",
          "type": "address"
        },
        {
          "indexed": false,
          "name": "winnings",
          "type": "uint256"
        }
      ],
      "name": "LogPayout",
      "type": "event"
    },
    {
      "anonymous": false,
      "inputs": [
        {
          "indexed": true,
          "name": "previousOwner",
          "type": "address"
        },
        {
          "indexed": true,
          "name": "newOwner",
          "type": "address"
        }
      ],
      "name": "OwnershipTransferred",
      "type": "event"
    }
  ],
  "bytecode": "0x60606040526000607260006101000a81548160ff021916908360ff160217905550341561002b57600080fd5b604051602080610efd83398101604052808051906020019091905050336000806101000a81548173ffffffffffffffffffffffffffffffffffffffff021916908373ffffffffffffffffffffffffffffffffffffffff16021790555080600160006101000a81548173ffffffffffffffffffffffffffffffffffffffff021916908373ffffffffffffffffffffffffffffffffffffffff16021790555050610e25806100d86000396000f3006060604052600436106100da576000357c0100000000000000000000000000000000000000000000000000000000900463ffffffff1680620b46f8146100df5780634ee831c4146101085780636ffcc7191461016757806385be8815146101885780638da5cb5b146101d35780639ef40d7814610228578063ae90b21314610268578063b1f4e44b146102bd578063bf9befb1146102ec578063cb658d5c14610315578063d18e81b31461035b578063ebb8550214610384578063eea82524146103ad578063f2fde38b146103d9578063f776b44c14610412575b600080fd5b34156100ea57600080fd5b6100f261043e565b6040518082815260200191505060405180910390f35b341561011357600080fd5b610151600480803573ffffffffffffffffffffffffffffffffffffffff16906020019091908035906020019091908035906020019091905050610443565b6040518082815260200191505060405180910390f35b610186600480803590602001909190803590602001909190505061047c565b005b341561019357600080fd5b6101d1600480803573ffffffffffffffffffffffffffffffffffffffff16906020019091908035906020019091908035906020019091905050610728565b005b34156101de57600080fd5b6101e66109a1565b604051808273ffffffffffffffffffffffffffffffffffffffff1673ffffffffffffffffffffffffffffffffffffffff16815260200191505060405180910390f35b341561023357600080fd5b61025260048080359060200190919080359060200190919050506109c6565b6040518082815260200191505060405180910390f35b341561027357600080fd5b61027b6109f2565b604051808273ffffffffffffffffffffffffffffffffffffffff1673ffffffffffffffffffffffffffffffffffffffff16815260200191505060405180910390f35b34156102c857600080fd5b6102d0610a18565b604051808260ff1660ff16815260200191505060405180910390f35b34156102f757600080fd5b6102ff610a1d565b6040518082815260200191505060405180910390f35b341561032057600080fd5b61033f6004808035906020019091908035906020019091905050610a23565b604051808260ff1660ff16815260200191505060405180910390f35b341561036657600080fd5b61036e610a5d565b6040518082815260200191505060405180910390f35b341561038f57600080fd5b610397610a65565b6040518082815260200191505060405180910390f35b34156103b857600080fd5b6103d76004808035906020019091908035906020019091905050610a6d565b005b34156103e457600080fd5b610410600480803573ffffffffffffffffffffffffffffffffffffffff16906020019091905050610ab8565b005b341561041d57600080fd5b61043c6004808035906020019091908035906020019091905050610c0d565b005b600581565b600260205282600052604060002082600a8110151561045e57fe5b600a020181600a8110151561046f57fe5b0160009250925050505481565b6000808383600082101580156104925750600a82105b151561049d57600080fd5b600081101580156104ae5750600a81105b15156104b957600080fd5b6000341115156104c857600080fd5b635a76eeb86104d5610a5d565b1015156104e157600080fd5b61050860646104fa600534610d6c90919063ffffffff16565b610da790919063ffffffff16565b9350600160009054906101000a900473ffffffffffffffffffffffffffffffffffffffff1673ffffffffffffffffffffffffffffffffffffffff166108fc859081150290604051600060405180830381858888f19350505050151561056c57600080fd5b61057f8434610dc290919063ffffffff16565b925061059683606754610ddb90919063ffffffff16565b60678190555061060d83600260003373ffffffffffffffffffffffffffffffffffffffff1673ffffffffffffffffffffffffffffffffffffffff16815260200190815260200160002088600a811015156105ec57fe5b600a020187600a811015156105fd57fe5b0154610ddb90919063ffffffff16565b600260003373ffffffffffffffffffffffffffffffffffffffff1673ffffffffffffffffffffffffffffffffffffffff16815260200190815260200160002087600a8110151561065957fe5b600a020186600a8110151561066a57fe5b01819055506106a383600388600a8110151561068257fe5b600a020187600a8110151561069357fe5b0154610ddb90919063ffffffff16565b600387600a811015156106b257fe5b600a020186600a811015156106c357fe5b018190555084863373ffffffffffffffffffffffffffffffffffffffff167f932e7d9dfe5d3d467e9a59c299458fa146ef11f9d3093857e94ac71aef75e1068688604051808381526020018281526020019250505060405180910390a4505050505050565b60008060008484600082101580156107405750600a82105b151561074b57600080fd5b6000811015801561075c5750600a81105b151561076757600080fd5b600460ff16607260009054906101000a900460ff1660ff1614151561078b57600080fd5b600260008973ffffffffffffffffffffffffffffffffffffffff1673ffffffffffffffffffffffffffffffffffffffff16815260200190815260200160002087600a811015156107d757fe5b600a020186600a811015156107e857fe5b01549450600387600a811015156107fb57fe5b600a020186600a8110151561080c57fe5b0154935061089484610886600460ff1661087860688c600a8110151561082e57fe5b018b600a8110151561083c57fe5b602091828204019190069054906101000a900460ff1660ff1661086a6067548c610d6c90919063ffffffff16565b610d6c90919063ffffffff16565b610da790919063ffffffff16565b610da790919063ffffffff16565b92506000831115156108a557600080fd5b6000600260008a73ffffffffffffffffffffffffffffffffffffffff1673ffffffffffffffffffffffffffffffffffffffff16815260200190815260200160002088600a811015156108f357fe5b600a020187600a8110151561090457fe5b01819055508773ffffffffffffffffffffffffffffffffffffffff166108fc849081150290604051600060405180830381858888f19350505050151561094957600080fd5b8773ffffffffffffffffffffffffffffffffffffffff167f7d6963073a93103d7a336ea21c7f029ad757c9ef4c0c6ad0ff86c689480e0ed8846040518082815260200191505060405180910390a25050505050505050565b6000809054906101000a900473ffffffffffffffffffffffffffffffffffffffff1681565b600382600a811015156109d557fe5b600a020181600a811015156109e657fe5b01600091509150505481565b600160009054906101000a900473ffffffffffffffffffffffffffffffffffffffff1681565b600481565b60675481565b606882600a81101515610a3257fe5b0181600a81101515610a4057fe5b60209182820401919006915091509054906101000a900460ff1681565b600042905090565b635a76eeb881565b818160008210158015610a805750600a82105b1515610a8b57600080fd5b60008110158015610a9c5750600a81105b1515610aa757600080fd5b610ab2338585610728565b50505050565b6000809054906101000a900473ffffffffffffffffffffffffffffffffffffffff1673ffffffffffffffffffffffffffffffffffffffff163373ffffffffffffffffffffffffffffffffffffffff16141515610b1357600080fd5b600073ffffffffffffffffffffffffffffffffffffffff168173ffffffffffffffffffffffffffffffffffffffff1614151515610b4f57600080fd5b8073ffffffffffffffffffffffffffffffffffffffff166000809054906101000a900473ffffffffffffffffffffffffffffffffffffffff1673ffffffffffffffffffffffffffffffffffffffff167f8be0079c531659141344cd1fd0a4f28419497f9722a3daafe3b4186f6b6457e060405160405180910390a3806000806101000a81548173ffffffffffffffffffffffffffffffffffffffff021916908373ffffffffffffffffffffffffffffffffffffffff16021790555050565b6000809054906101000a900473ffffffffffffffffffffffffffffffffffffffff1673ffffffffffffffffffffffffffffffffffffffff163373ffffffffffffffffffffffffffffffffffffffff16141515610c6857600080fd5b818160008210158015610c7b5750600a82105b1515610c8657600080fd5b60008110158015610c975750600a81105b1515610ca257600080fd5b600460ff16607260009054906101000a900460ff1660ff16101515610cc657600080fd5b635a76eeb8610cd3610a5d565b111515610cdf57600080fd5b6072600081819054906101000a900460ff168092919060010191906101000a81548160ff021916908360ff16021790555050606884600a81101515610d2057fe5b0183600a81101515610d2e57fe5b6020918282040191900681819054906101000a900460ff168092919060010191906101000a81548160ff021916908360ff1602179055505050505050565b6000806000841415610d815760009150610da0565b8284029050828482811515610d9257fe5b04141515610d9c57fe5b8091505b5092915050565b6000808284811515610db557fe5b0490508091505092915050565b6000828211151515610dd057fe5b818303905092915050565b6000808284019050838110151515610def57fe5b80915050929150505600a165627a7a72305820d66afb34ea4702d56d12afb265ee68394375cb6be8a1ff5277db3bf5f1674abd0029",
  "source": "pragma solidity 0.4.18;\n\nimport 'zeppelin-solidity/contracts/ownership/Ownable.sol';\nimport 'zeppelin-solidity/contracts/math/SafeMath.sol';\n\ncontract Boxes is Ownable {\n    using SafeMath for uint;\n\n    // 2/4/18 @ 6:30 PM EST, the deadline for bets\n    uint public constant GAME_START_TIME = 1517743800;\n\n    // the number of quarters\n    uint8 public constant NUM_QUARTERS = 4;\n\n    // the percentage fee collected on each bet\n    uint public constant FEE_PERCENTAGE = 5;\n\n    function Boxes(address _payee) public {\n        payee = _payee;\n    }\n\n    // the recipient of collected fees\n    address public payee;\n\n    // staked ether for each player and each box\n    mapping(address => uint[10][10]) public boxStakesByUser;\n\n    // total stakes for each box\n    uint[10][10] public totalBoxStakes;\n\n    // the overall total of money stakes in the grid\n    uint public totalStakes;\n\n    // how many times each box wins\n    uint8[10][10] public boxQuartersWon;\n\n    // whether all quarters have been reported\n    uint8 quartersReported = 0;\n\n    modifier isValidBox(uint home, uint away) {\n        require(home >= 0 && home < 10);\n        require(away >= 0 && away < 10);\n        _;\n    }\n\n    function currentTime() view public returns (uint) {\n        return now;\n    }\n\n    function reportWinner(uint home, uint away) public onlyOwner isValidBox(home, away) {\n        // can only report 4 quarters\n        require(quartersReported < NUM_QUARTERS);\n        require(currentTime() > GAME_START_TIME);\n\n        // count a quarter reported\n        quartersReported++;\n\n        // that box won\n        boxQuartersWon[home][away]++;\n    }\n\n    event LogBet(address indexed better, uint indexed home, uint indexed away, uint stake, uint fee);\n\n    function bet(uint home, uint away) public payable isValidBox(home, away) {\n        require(msg.value > 0);\n        require(currentTime() < GAME_START_TIME);\n\n        // collect the fee\n        uint fee = msg.value.mul(FEE_PERCENTAGE).div(100);\n        payee.transfer(fee);\n\n        // the amount staked is what's left over\n        uint stake = msg.value.sub(fee);\n\n        // add the stake amount to the overall total\n        totalStakes = totalStakes.add(stake);\n\n        // add their stake to their own accounting\n        boxStakesByUser[msg.sender][home][away] = boxStakesByUser[msg.sender][home][away].add(stake);\n\n        // add it to the total stakes as well\n        totalBoxStakes[home][away] = totalBoxStakes[home][away].add(stake);\n\n        LogBet(msg.sender, home, away, stake, fee);\n    }\n\n    event LogPayout(address indexed winner, uint winnings);\n\n    // called by the winners to collect winnings for a box\n    function collectWinnings(uint home, uint away) public isValidBox(home, away) {\n        sendWinningsTo(msg.sender, home, away);\n    }\n\n    // called by anyone to send winnings for a address box, only after all the quarters are reported\n    function sendWinningsTo(address winner, uint home, uint away) public isValidBox(home, away) {\n        require(quartersReported == NUM_QUARTERS);\n\n        uint stake = boxStakesByUser[winner][home][away];\n        uint boxStake = totalBoxStakes[home][away];\n\n        uint winnings = stake.mul(totalStakes).mul(boxQuartersWon[home][away]).div(NUM_QUARTERS).div(boxStake);\n\n        require(winnings > 0);\n\n        // clear their stakes - can only collect once\n        boxStakesByUser[winner][home][away] = 0;\n\n        winner.transfer(winnings);\n\n        LogPayout(winner, winnings);\n    }\n}\n",
  "sourcePath": "/Users/moodysalem/Projects/contracts/contracts/Boxes.sol",
  "compiler": {
    "name": "solc",
    "version": "0.4.18+commit.9cf6e910.Emscripten.clang"
  },
  "schemaVersion": "1.0.1",
  "updatedAt": "2018-01-13T17:31:01.221Z"
}