{
  "contractName": "Boxes",
  "abi": [
    {
      "constant": true,
      "inputs": [],
      "name": "FEE_PERCENTAGE",
      "outputs": [
        {
          "name": "",
          "type": "uint256"
        }
      ],
      "payable": false,
      "stateMutability": "view",
      "type": "function"
    },
    {
      "constant": true,
      "inputs": [
        {
          "name": "",
          "type": "address"
        },
        {
          "name": "",
          "type": "uint256"
        },
        {
          "name": "",
          "type": "uint256"
        }
      ],
      "name": "boxStakesByUser",
      "outputs": [
        {
          "name": "",
          "type": "uint256"
        }
      ],
      "payable": false,
      "stateMutability": "view",
      "type": "function"
    },
    {
      "constant": false,
      "inputs": [
        {
          "name": "home",
          "type": "uint256"
        },
        {
          "name": "away",
          "type": "uint256"
        }
      ],
      "name": "bet",
      "outputs": [],
      "payable": true,
      "stateMutability": "payable",
      "type": "function"
    },
    {
      "constant": false,
      "inputs": [
        {
          "name": "winner",
          "type": "address"
        },
        {
          "name": "home",
          "type": "uint256"
        },
        {
          "name": "away",
          "type": "uint256"
        }
      ],
      "name": "sendWinningsTo",
      "outputs": [],
      "payable": false,
      "stateMutability": "nonpayable",
      "type": "function"
    },
    {
      "constant": true,
      "inputs": [],
      "name": "owner",
      "outputs": [
        {
          "name": "",
          "type": "address"
        }
      ],
      "payable": false,
      "stateMutability": "view",
      "type": "function"
    },
    {
      "constant": true,
      "inputs": [
        {
          "name": "",
          "type": "uint256"
        },
        {
          "name": "",
          "type": "uint256"
        }
      ],
      "name": "totalBoxStakes",
      "outputs": [
        {
          "name": "",
          "type": "uint256"
        }
      ],
      "payable": false,
      "stateMutability": "view",
      "type": "function"
    },
    {
      "constant": true,
      "inputs": [],
      "name": "payee",
      "outputs": [
        {
          "name": "",
          "type": "address"
        }
      ],
      "payable": false,
      "stateMutability": "view",
      "type": "function"
    },
    {
      "constant": true,
      "inputs": [],
      "name": "NUM_QUARTERS",
      "outputs": [
        {
          "name": "",
          "type": "uint256"
        }
      ],
      "payable": false,
      "stateMutability": "view",
      "type": "function"
    },
    {
      "constant": true,
      "inputs": [],
      "name": "totalStakes",
      "outputs": [
        {
          "name": "",
          "type": "uint256"
        }
      ],
      "payable": false,
      "stateMutability": "view",
      "type": "function"
    },
    {
      "constant": true,
      "inputs": [
        {
          "name": "",
          "type": "uint256"
        },
        {
          "name": "",
          "type": "uint256"
        }
      ],
      "name": "boxQuartersWon",
      "outputs": [
        {
          "name": "",
          "type": "uint256"
        }
      ],
      "payable": false,
      "stateMutability": "view",
      "type": "function"
    },
    {
      "constant": true,
      "inputs": [],
      "name": "currentTime",
      "outputs": [
        {
          "name": "",
          "type": "uint256"
        }
      ],
      "payable": false,
      "stateMutability": "view",
      "type": "function"
    },
    {
      "constant": true,
      "inputs": [],
      "name": "GAME_START_TIME",
      "outputs": [
        {
          "name": "",
          "type": "uint256"
        }
      ],
      "payable": false,
      "stateMutability": "view",
      "type": "function"
    },
    {
      "constant": false,
      "inputs": [
        {
          "name": "home",
          "type": "uint256"
        },
        {
          "name": "away",
          "type": "uint256"
        }
      ],
      "name": "collectWinnings",
      "outputs": [],
      "payable": false,
      "stateMutability": "nonpayable",
      "type": "function"
    },
    {
      "constant": false,
      "inputs": [
        {
          "name": "newOwner",
          "type": "address"
        }
      ],
      "name": "transferOwnership",
      "outputs": [],
      "payable": false,
      "stateMutability": "nonpayable",
      "type": "function"
    },
    {
      "constant": false,
      "inputs": [
        {
          "name": "home",
          "type": "uint256"
        },
        {
          "name": "away",
          "type": "uint256"
        }
      ],
      "name": "reportWinner",
      "outputs": [],
      "payable": false,
      "stateMutability": "nonpayable",
      "type": "function"
    },
    {
      "inputs": [
        {
          "name": "_payee",
          "type": "address"
        }
      ],
      "payable": false,
      "stateMutability": "nonpayable",
      "type": "constructor"
    },
    {
      "anonymous": false,
      "inputs": [
        {
          "indexed": true,
          "name": "better",
          "type": "address"
        },
        {
          "indexed": true,
          "name": "home",
          "type": "uint256"
        },
        {
          "indexed": true,
          "name": "away",
          "type": "uint256"
        },
        {
          "indexed": false,
          "name": "stake",
          "type": "uint256"
        },
        {
          "indexed": false,
          "name": "fee",
          "type": "uint256"
        }
      ],
      "name": "LogBet",
      "type": "event"
    },
    {
      "anonymous": false,
      "inputs": [
        {
          "indexed": true,
          "name": "winner",
          "type": "address"
        },
        {
          "indexed": false,
          "name": "amount",
          "type": "uint256"
        }
      ],
      "name": "LogPayout",
      "type": "event"
    },
    {
      "anonymous": false,
      "inputs": [
        {
          "indexed": true,
          "name": "previousOwner",
          "type": "address"
        },
        {
          "indexed": true,
          "name": "newOwner",
          "type": "address"
        }
      ],
      "name": "OwnershipTransferred",
      "type": "event"
    }
  ],
  "bytecode": "0x6060604052600060cc55341561001457600080fd5b604051602080610e4b83398101604052808051906020019091905050336000806101000a81548173ffffffffffffffffffffffffffffffffffffffff021916908373ffffffffffffffffffffffffffffffffffffffff16021790555080600160006101000a81548173ffffffffffffffffffffffffffffffffffffffff021916908373ffffffffffffffffffffffffffffffffffffffff16021790555050610d8a806100c16000396000f3006060604052600436106100da576000357c0100000000000000000000000000000000000000000000000000000000900463ffffffff1680620b46f8146100df5780634ee831c4146101085780636ffcc7191461016757806385be8815146101885780638da5cb5b146101d35780639ef40d7814610228578063ae90b21314610268578063b1f4e44b146102bd578063bf9befb1146102e6578063cb658d5c1461030f578063d18e81b31461034f578063ebb8550214610378578063eea82524146103a1578063f2fde38b146103cd578063f776b44c14610406575b600080fd5b34156100ea57600080fd5b6100f2610432565b6040518082815260200191505060405180910390f35b341561011357600080fd5b610151600480803573ffffffffffffffffffffffffffffffffffffffff16906020019091908035906020019091908035906020019091905050610437565b6040518082815260200191505060405180910390f35b6101866004808035906020019091908035906020019091905050610470565b005b341561019357600080fd5b6101d1600480803573ffffffffffffffffffffffffffffffffffffffff1690602001909190803590602001909190803590602001909190505061071c565b005b34156101de57600080fd5b6101e661096b565b604051808273ffffffffffffffffffffffffffffffffffffffff1673ffffffffffffffffffffffffffffffffffffffff16815260200191505060405180910390f35b341561023357600080fd5b6102526004808035906020019091908035906020019091905050610990565b6040518082815260200191505060405180910390f35b341561027357600080fd5b61027b6109bc565b604051808273ffffffffffffffffffffffffffffffffffffffff1673ffffffffffffffffffffffffffffffffffffffff16815260200191505060405180910390f35b34156102c857600080fd5b6102d06109e2565b6040518082815260200191505060405180910390f35b34156102f157600080fd5b6102f96109e7565b6040518082815260200191505060405180910390f35b341561031a57600080fd5b61033960048080359060200190919080359060200190919050506109ed565b6040518082815260200191505060405180910390f35b341561035a57600080fd5b610362610a19565b6040518082815260200191505060405180910390f35b341561038357600080fd5b61038b610a21565b6040518082815260200191505060405180910390f35b34156103ac57600080fd5b6103cb6004808035906020019091908035906020019091905050610a29565b005b34156103d857600080fd5b610404600480803573ffffffffffffffffffffffffffffffffffffffff16906020019091905050610a74565b005b341561041157600080fd5b6104306004808035906020019091908035906020019091905050610bc9565b005b600581565b600260205282600052604060002082600a8110151561045257fe5b600a020181600a8110151561046357fe5b0160009250925050505481565b6000808383600082101580156104865750600a82105b151561049157600080fd5b600081101580156104a25750600a81105b15156104ad57600080fd5b6000341115156104bc57600080fd5b635a76eeb86104c9610a19565b1015156104d557600080fd5b6104fc60646104ee600534610cd190919063ffffffff16565b610d0c90919063ffffffff16565b9350600160009054906101000a900473ffffffffffffffffffffffffffffffffffffffff1673ffffffffffffffffffffffffffffffffffffffff166108fc859081150290604051600060405180830381858888f19350505050151561056057600080fd5b6105738434610d2790919063ffffffff16565b925061058a83606754610d4090919063ffffffff16565b60678190555061060183600260003373ffffffffffffffffffffffffffffffffffffffff1673ffffffffffffffffffffffffffffffffffffffff16815260200190815260200160002088600a811015156105e057fe5b600a020187600a811015156105f157fe5b0154610d4090919063ffffffff16565b600260003373ffffffffffffffffffffffffffffffffffffffff1673ffffffffffffffffffffffffffffffffffffffff16815260200190815260200160002087600a8110151561064d57fe5b600a020186600a8110151561065e57fe5b018190555061069783600388600a8110151561067657fe5b600a020187600a8110151561068757fe5b0154610d4090919063ffffffff16565b600387600a811015156106a657fe5b600a020186600a811015156106b757fe5b018190555084863373ffffffffffffffffffffffffffffffffffffffff167f932e7d9dfe5d3d467e9a59c299458fa146ef11f9d3093857e94ac71aef75e1068688604051808381526020018281526020019250505060405180910390a4505050505050565b60008060008484600082101580156107345750600a82105b151561073f57600080fd5b600081101580156107505750600a81105b151561075b57600080fd5b600460cc5414151561076c57600080fd5b600260008973ffffffffffffffffffffffffffffffffffffffff1673ffffffffffffffffffffffffffffffffffffffff16815260200190815260200160002087600a811015156107b857fe5b600a020186600a811015156107c957fe5b01549450600387600a811015156107dc57fe5b600a020186600a811015156107ed57fe5b0154935061085e84610850600461084260688c600a8110151561080c57fe5b600a02018b600a8110151561081d57fe5b01546108346067548c610cd190919063ffffffff16565b610cd190919063ffffffff16565b610d0c90919063ffffffff16565b610d0c90919063ffffffff16565b925060008311151561086f57600080fd5b6000600260008a73ffffffffffffffffffffffffffffffffffffffff1673ffffffffffffffffffffffffffffffffffffffff16815260200190815260200160002088600a811015156108bd57fe5b600a020187600a811015156108ce57fe5b01819055508773ffffffffffffffffffffffffffffffffffffffff166108fc849081150290604051600060405180830381858888f19350505050151561091357600080fd5b8773ffffffffffffffffffffffffffffffffffffffff167f7d6963073a93103d7a336ea21c7f029ad757c9ef4c0c6ad0ff86c689480e0ed8846040518082815260200191505060405180910390a25050505050505050565b6000809054906101000a900473ffffffffffffffffffffffffffffffffffffffff1681565b600382600a8110151561099f57fe5b600a020181600a811015156109b057fe5b01600091509150505481565b600160009054906101000a900473ffffffffffffffffffffffffffffffffffffffff1681565b600481565b60675481565b606882600a811015156109fc57fe5b600a020181600a81101515610a0d57fe5b01600091509150505481565b600042905090565b635a76eeb881565b818160008210158015610a3c5750600a82105b1515610a4757600080fd5b60008110158015610a585750600a81105b1515610a6357600080fd5b610a6e33858561071c565b50505050565b6000809054906101000a900473ffffffffffffffffffffffffffffffffffffffff1673ffffffffffffffffffffffffffffffffffffffff163373ffffffffffffffffffffffffffffffffffffffff16141515610acf57600080fd5b600073ffffffffffffffffffffffffffffffffffffffff168173ffffffffffffffffffffffffffffffffffffffff1614151515610b0b57600080fd5b8073ffffffffffffffffffffffffffffffffffffffff166000809054906101000a900473ffffffffffffffffffffffffffffffffffffffff1673ffffffffffffffffffffffffffffffffffffffff167f8be0079c531659141344cd1fd0a4f28419497f9722a3daafe3b4186f6b6457e060405160405180910390a3806000806101000a81548173ffffffffffffffffffffffffffffffffffffffff021916908373ffffffffffffffffffffffffffffffffffffffff16021790555050565b6000809054906101000a900473ffffffffffffffffffffffffffffffffffffffff1673ffffffffffffffffffffffffffffffffffffffff163373ffffffffffffffffffffffffffffffffffffffff16141515610c2457600080fd5b818160008210158015610c375750600a82105b1515610c4257600080fd5b60008110158015610c535750600a81105b1515610c5e57600080fd5b600460cc54101515610c6f57600080fd5b635a76eeb8610c7c610a19565b111515610c8857600080fd5b60cc60008154809291906001019190505550606884600a81101515610ca957fe5b600a020183600a81101515610cba57fe5b016000815480929190600101919050555050505050565b6000806000841415610ce65760009150610d05565b8284029050828482811515610cf757fe5b04141515610d0157fe5b8091505b5092915050565b6000808284811515610d1a57fe5b0490508091505092915050565b6000828211151515610d3557fe5b818303905092915050565b6000808284019050838110151515610d5457fe5b80915050929150505600a165627a7a72305820e32afcc429b019fc88be08d4954054a80b03270a94dafc66c4482b67a4b6c25a0029",
  "source": "pragma solidity 0.4.18;\n\nimport 'zeppelin-solidity/contracts/ownership/Ownable.sol';\nimport 'zeppelin-solidity/contracts/math/SafeMath.sol';\n\ncontract Boxes is Ownable {\n    using SafeMath for uint;\n\n    // 2/4/18 @ 6:30 PM EST, the deadline for bets\n    uint public constant GAME_START_TIME = 1517743800;\n\n    // the number of quarters\n    uint public constant NUM_QUARTERS = 4;\n\n    // the percentage fee collected on each bet\n    uint public constant FEE_PERCENTAGE = 5;\n\n    function Boxes(address _payee) public {\n        payee = _payee;\n    }\n\n    // the recipient of collected fees\n    address public payee;\n\n    // staked ether for each player and each box\n    mapping(address => uint[10][10]) public boxStakesByUser;\n\n    // total stakes for each box\n    uint[10][10] public totalBoxStakes;\n\n    // the overall total of money stakes in the grid\n    uint public totalStakes;\n\n    // how many times each box wins\n    uint[10][10] public boxQuartersWon;\n\n    // whether all quarters have been reported\n    uint quartersReported = 0;\n\n    modifier isValidBox(uint home, uint away) {\n        require(home >= 0 && home < 10);\n        require(away >= 0 && away < 10);\n        _;\n    }\n\n    function currentTime() view public returns (uint) {\n        return now;\n    }\n\n    function reportWinner(uint home, uint away) public onlyOwner isValidBox(home, away) {\n        // can only report 4 quarters\n        require(quartersReported < NUM_QUARTERS);\n        require(currentTime() > GAME_START_TIME);\n\n        // count a quarter reported\n        quartersReported++;\n\n        // that box won\n        boxQuartersWon[home][away]++;\n    }\n\n    event LogBet(address indexed better, uint indexed home, uint indexed away, uint stake, uint fee);\n\n    function bet(uint home, uint away) public payable isValidBox(home, away) {\n        require(msg.value > 0);\n        require(currentTime() < GAME_START_TIME);\n\n        // collect the fee\n        uint fee = msg.value.mul(FEE_PERCENTAGE).div(100);\n        payee.transfer(fee);\n\n        // the amount staked is what's left over\n        uint stake = msg.value.sub(fee);\n\n        // add the stake amount to the overall total\n        totalStakes = totalStakes.add(stake);\n\n        // add their stake to their own accounting\n        boxStakesByUser[msg.sender][home][away] = boxStakesByUser[msg.sender][home][away].add(stake);\n\n        // add it to the total stakes as well\n        totalBoxStakes[home][away] = totalBoxStakes[home][away].add(stake);\n\n        LogBet(msg.sender, home, away, stake, fee);\n    }\n\n    event LogPayout(address indexed winner, uint amount);\n\n    // called by the winners to collect winnings for a box\n    function collectWinnings(uint home, uint away) public isValidBox(home, away) {\n        sendWinningsTo(msg.sender, home, away);\n    }\n\n    // called by anyone to send winnings for a address box, only after all the quarters are reported\n    function sendWinningsTo(address winner, uint home, uint away) public isValidBox(home, away) {\n        require(quartersReported == NUM_QUARTERS);\n\n        uint stake = boxStakesByUser[winner][home][away];\n        uint boxStake = totalBoxStakes[home][away];\n\n        uint winnings = stake.mul(totalStakes).mul(boxQuartersWon[home][away]).div(NUM_QUARTERS).div(boxStake);\n\n        require(winnings > 0);\n\n        // clear their stakes - can only collect once\n        boxStakesByUser[winner][home][away] = 0;\n\n        winner.transfer(winnings);\n\n        LogPayout(winner, winnings);\n    }\n}\n",
  "sourcePath": "/Users/moodysalem/Projects/contracts/contracts/Boxes.sol",
  "compiler": {
    "name": "solc",
    "version": "0.4.18+commit.9cf6e910.Emscripten.clang"
  },
  "schemaVersion": "1.0.1",
  "updatedAt": "2018-01-13T17:01:45.049Z"
}