{
  "contractName": "Boxes",
  "abi": [
    {
      "constant": true,
      "inputs": [],
      "name": "FEE_PERCENTAGE",
      "outputs": [
        {
          "name": "",
          "type": "uint256"
        }
      ],
      "payable": false,
      "stateMutability": "view",
      "type": "function"
    },
    {
      "constant": true,
      "inputs": [
        {
          "name": "",
          "type": "address"
        },
        {
          "name": "",
          "type": "uint256"
        },
        {
          "name": "",
          "type": "uint256"
        }
      ],
      "name": "boxStakesByUser",
      "outputs": [
        {
          "name": "",
          "type": "uint256"
        }
      ],
      "payable": false,
      "stateMutability": "view",
      "type": "function"
    },
    {
      "constant": false,
      "inputs": [
        {
          "name": "home",
          "type": "uint256"
        },
        {
          "name": "away",
          "type": "uint256"
        }
      ],
      "name": "bet",
      "outputs": [],
      "payable": true,
      "stateMutability": "payable",
      "type": "function"
    },
    {
      "constant": true,
      "inputs": [],
      "name": "oracle",
      "outputs": [
        {
          "name": "",
          "type": "address"
        }
      ],
      "payable": false,
      "stateMutability": "view",
      "type": "function"
    },
    {
      "constant": false,
      "inputs": [
        {
          "name": "winner",
          "type": "address"
        },
        {
          "name": "home",
          "type": "uint256"
        },
        {
          "name": "away",
          "type": "uint256"
        }
      ],
      "name": "sendWinningsTo",
      "outputs": [],
      "payable": false,
      "stateMutability": "nonpayable",
      "type": "function"
    },
    {
      "constant": true,
      "inputs": [
        {
          "name": "",
          "type": "uint256"
        },
        {
          "name": "",
          "type": "uint256"
        }
      ],
      "name": "totalBoxStakes",
      "outputs": [
        {
          "name": "",
          "type": "uint256"
        }
      ],
      "payable": false,
      "stateMutability": "view",
      "type": "function"
    },
    {
      "constant": true,
      "inputs": [],
      "name": "payee",
      "outputs": [
        {
          "name": "",
          "type": "address"
        }
      ],
      "payable": false,
      "stateMutability": "view",
      "type": "function"
    },
    {
      "constant": true,
      "inputs": [],
      "name": "totalStakes",
      "outputs": [
        {
          "name": "",
          "type": "uint256"
        }
      ],
      "payable": false,
      "stateMutability": "view",
      "type": "function"
    },
    {
      "constant": true,
      "inputs": [],
      "name": "currentTime",
      "outputs": [
        {
          "name": "",
          "type": "uint256"
        }
      ],
      "payable": false,
      "stateMutability": "view",
      "type": "function"
    },
    {
      "constant": true,
      "inputs": [],
      "name": "GAME_START_TIME",
      "outputs": [
        {
          "name": "",
          "type": "uint256"
        }
      ],
      "payable": false,
      "stateMutability": "view",
      "type": "function"
    },
    {
      "constant": false,
      "inputs": [
        {
          "name": "home",
          "type": "uint256"
        },
        {
          "name": "away",
          "type": "uint256"
        }
      ],
      "name": "collectWinnings",
      "outputs": [],
      "payable": false,
      "stateMutability": "nonpayable",
      "type": "function"
    },
    {
      "inputs": [
        {
          "name": "_oracle",
          "type": "address"
        },
        {
          "name": "_payee",
          "type": "address"
        }
      ],
      "payable": false,
      "stateMutability": "nonpayable",
      "type": "constructor"
    },
    {
      "anonymous": false,
      "inputs": [
        {
          "indexed": true,
          "name": "better",
          "type": "address"
        },
        {
          "indexed": true,
          "name": "home",
          "type": "uint256"
        },
        {
          "indexed": true,
          "name": "away",
          "type": "uint256"
        },
        {
          "indexed": false,
          "name": "stake",
          "type": "uint256"
        },
        {
          "indexed": false,
          "name": "fee",
          "type": "uint256"
        }
      ],
      "name": "LogBet",
      "type": "event"
    },
    {
      "anonymous": false,
      "inputs": [
        {
          "indexed": true,
          "name": "winner",
          "type": "address"
        },
        {
          "indexed": false,
          "name": "winnings",
          "type": "uint256"
        }
      ],
      "name": "LogPayout",
      "type": "event"
    }
  ],
  "bytecode": "0x6060604052341561000f57600080fd5b604051604080610c118339810160405280805190602001909190805190602001909190505080600160006101000a81548173ffffffffffffffffffffffffffffffffffffffff021916908373ffffffffffffffffffffffffffffffffffffffff160217905550816000806101000a81548173ffffffffffffffffffffffffffffffffffffffff021916908373ffffffffffffffffffffffffffffffffffffffff1602179055505050610b4b806100c66000396000f3006060604052600436106100ae576000357c0100000000000000000000000000000000000000000000000000000000900463ffffffff1680620b46f8146100b35780634ee831c4146100dc5780636ffcc7191461013b5780637dc0d1d01461015c57806385be8815146101b15780639ef40d78146101fc578063ae90b2131461023c578063bf9befb114610291578063d18e81b3146102ba578063ebb85502146102e3578063eea825241461030c575b600080fd5b34156100be57600080fd5b6100c6610338565b6040518082815260200191505060405180910390f35b34156100e757600080fd5b610125600480803573ffffffffffffffffffffffffffffffffffffffff1690602001909190803590602001909190803590602001909190505061033d565b6040518082815260200191505060405180910390f35b61015a6004808035906020019091908035906020019091905050610376565b005b341561016757600080fd5b61016f610622565b604051808273ffffffffffffffffffffffffffffffffffffffff1673ffffffffffffffffffffffffffffffffffffffff16815260200191505060405180910390f35b34156101bc57600080fd5b6101fa600480803573ffffffffffffffffffffffffffffffffffffffff16906020019091908035906020019091908035906020019091905050610647565b005b341561020757600080fd5b61022660048080359060200190919080359060200190919050506109df565b6040518082815260200191505060405180910390f35b341561024757600080fd5b61024f610a0b565b604051808273ffffffffffffffffffffffffffffffffffffffff1673ffffffffffffffffffffffffffffffffffffffff16815260200191505060405180910390f35b341561029c57600080fd5b6102a4610a31565b6040518082815260200191505060405180910390f35b34156102c557600080fd5b6102cd610a37565b6040518082815260200191505060405180910390f35b34156102ee57600080fd5b6102f6610a3f565b6040518082815260200191505060405180910390f35b341561031757600080fd5b6103366004808035906020019091908035906020019091905050610a47565b005b600581565b600260205282600052604060002082600a8110151561035857fe5b600a020181600a8110151561036957fe5b0160009250925050505481565b60008083836000821015801561038c5750600a82105b151561039757600080fd5b600081101580156103a85750600a81105b15156103b357600080fd5b6000341115156103c257600080fd5b635a7797786103cf610a37565b1015156103db57600080fd5b61040260646103f4600534610a9290919063ffffffff16565b610acd90919063ffffffff16565b9350600160009054906101000a900473ffffffffffffffffffffffffffffffffffffffff1673ffffffffffffffffffffffffffffffffffffffff166108fc859081150290604051600060405180830381858888f19350505050151561046657600080fd5b6104798434610ae890919063ffffffff16565b925061049083606754610b0190919063ffffffff16565b60678190555061050783600260003373ffffffffffffffffffffffffffffffffffffffff1673ffffffffffffffffffffffffffffffffffffffff16815260200190815260200160002088600a811015156104e657fe5b600a020187600a811015156104f757fe5b0154610b0190919063ffffffff16565b600260003373ffffffffffffffffffffffffffffffffffffffff1673ffffffffffffffffffffffffffffffffffffffff16815260200190815260200160002087600a8110151561055357fe5b600a020186600a8110151561056457fe5b018190555061059d83600388600a8110151561057c57fe5b600a020187600a8110151561058d57fe5b0154610b0190919063ffffffff16565b600387600a811015156105ac57fe5b600a020186600a811015156105bd57fe5b018190555084863373ffffffffffffffffffffffffffffffffffffffff167f932e7d9dfe5d3d467e9a59c299458fa146ef11f9d3093857e94ac71aef75e1068688604051808381526020018281526020019250505060405180910390a4505050505050565b6000809054906101000a900473ffffffffffffffffffffffffffffffffffffffff1681565b60008060008060008686600082101580156106625750600a82105b151561066d57600080fd5b6000811015801561067e5750600a81105b151561068957600080fd5b6000809054906101000a900473ffffffffffffffffffffffffffffffffffffffff1673ffffffffffffffffffffffffffffffffffffffff16638d4e40836000604051602001526040518163ffffffff167c0100000000000000000000000000000000000000000000000000000000028152600401602060405180830381600087803b151561071657600080fd5b6102c65a03f1151561072757600080fd5b50505060405180519050151561073c57600080fd5b6000809054906101000a900473ffffffffffffffffffffffffffffffffffffffff1673ffffffffffffffffffffffffffffffffffffffff16635922b4a28a8a6000604051604001526040518363ffffffff167c010000000000000000000000000000000000000000000000000000000002815260040180838152602001828152602001925050506040805180830381600087803b15156107db57600080fd5b6102c65a03f115156107ec57600080fd5b5050506040518051906020018051905096509650600260008b73ffffffffffffffffffffffffffffffffffffffff1673ffffffffffffffffffffffffffffffffffffffff16815260200190815260200160002089600a8110151561084c57fe5b600a020188600a8110151561085d57fe5b01549450600389600a8110151561087057fe5b600a020188600a8110151561088157fe5b015493506108d0846108c2886108b48b6108a66067548c610a9290919063ffffffff16565b610a9290919063ffffffff16565b610acd90919063ffffffff16565b610acd90919063ffffffff16565b92506000831115156108e157600080fd5b6000600260008c73ffffffffffffffffffffffffffffffffffffffff1673ffffffffffffffffffffffffffffffffffffffff1681526020019081526020016000208a600a8110151561092f57fe5b600a020189600a8110151561094057fe5b01819055508973ffffffffffffffffffffffffffffffffffffffff166108fc849081150290604051600060405180830381858888f19350505050151561098557600080fd5b8973ffffffffffffffffffffffffffffffffffffffff167f7d6963073a93103d7a336ea21c7f029ad757c9ef4c0c6ad0ff86c689480e0ed8846040518082815260200191505060405180910390a250505050505050505050565b600382600a811015156109ee57fe5b600a020181600a811015156109ff57fe5b01600091509150505481565b600160009054906101000a900473ffffffffffffffffffffffffffffffffffffffff1681565b60675481565b600042905090565b635a77977881565b818160008210158015610a5a5750600a82105b1515610a6557600080fd5b60008110158015610a765750600a81105b1515610a8157600080fd5b610a8c338585610647565b50505050565b6000806000841415610aa75760009150610ac6565b8284029050828482811515610ab857fe5b04141515610ac257fe5b8091505b5092915050565b6000808284811515610adb57fe5b0490508091505092915050565b6000828211151515610af657fe5b818303905092915050565b6000808284019050838110151515610b1557fe5b80915050929150505600a165627a7a723058201e15731c22119d67821a373aead0536f3b847ef552255282338942d299d623a60029",
  "source": "pragma solidity 0.4.18;\n\nimport 'zeppelin-solidity/contracts/ownership/Ownable.sol';\nimport 'zeppelin-solidity/contracts/math/SafeMath.sol';\nimport './interfaces/IScoreOracle.sol';\nimport './KnowsBoxes.sol';\nimport './KnowsConstants.sol';\nimport './KnowsTime.sol';\n\ncontract Boxes is KnowsConstants, KnowsTime, KnowsBoxes {\n    using SafeMath for uint;\n\n    // the percentage fee collected on each bet\n    uint public constant FEE_PERCENTAGE = 5;\n\n    function Boxes(IScoreOracle _oracle, address _payee) public {\n        payee = _payee;\n        oracle = _oracle;\n    }\n\n    // the oracle for the scores\n    IScoreOracle public oracle;\n\n    // the recipient of collected fees\n    address public payee;\n\n    // staked ether for each player and each box\n    mapping(address => uint[10][10]) public boxStakesByUser;\n\n    // total stakes for each box\n    uint[10][10] public totalBoxStakes;\n\n    // the overall total of money stakes in the grid\n    uint public totalStakes;\n\n    event LogBet(address indexed better, uint indexed home, uint indexed away, uint stake, uint fee);\n\n    function bet(uint home, uint away) public payable isValidBox(home, away) {\n        require(msg.value > 0);\n        require(currentTime() < GAME_START_TIME);\n\n        // collect the fee\n        uint fee = msg.value.mul(FEE_PERCENTAGE).div(100);\n        payee.transfer(fee);\n\n        // the amount staked is what's left over\n        uint stake = msg.value.sub(fee);\n\n        // add the stake amount to the overall total\n        totalStakes = totalStakes.add(stake);\n\n        // add their stake to their own accounting\n        boxStakesByUser[msg.sender][home][away] = boxStakesByUser[msg.sender][home][away].add(stake);\n\n        // add it to the total stakes as well\n        totalBoxStakes[home][away] = totalBoxStakes[home][away].add(stake);\n\n        LogBet(msg.sender, home, away, stake, fee);\n    }\n\n    event LogPayout(address indexed winner, uint winnings);\n\n    // called by the winners to collect winnings for a box\n    function collectWinnings(uint home, uint away) public isValidBox(home, away) {\n        sendWinningsTo(msg.sender, home, away);\n    }\n\n    // called by anyone to send winnings for a address box, only after all the quarters are reported\n    function sendWinningsTo(address winner, uint home, uint away) public isValidBox(home, away) {\n        // score must be finalized\n        require(oracle.isFinalized());\n\n        // the box wins and the total wins are used to calculate the percentage of the total stake that the box is worth\n        var (boxWins, totalWins) = oracle.getBoxWins(home, away);\n\n        uint userStake = boxStakesByUser[winner][home][away];\n        uint boxStake = totalBoxStakes[home][away];\n\n        uint winnings = userStake.mul(totalStakes).mul(boxWins).div(totalWins).div(boxStake);\n\n        require(winnings > 0);\n\n        // clear their stakes - can only collect once\n        boxStakesByUser[winner][home][away] = 0;\n\n        winner.transfer(winnings);\n\n        LogPayout(winner, winnings);\n    }\n}\n",
  "sourcePath": "/Users/moodysalem/Projects/contracts/contracts/Boxes.sol",
  "compiler": {
    "name": "solc",
    "version": "0.4.18+commit.9cf6e910.Emscripten.clang"
  },
  "schemaVersion": "1.0.1",
  "updatedAt": "2018-01-14T14:08:21.280Z"
}