{
  "contractName": "KnowsTime",
  "abi": [
    {
      "constant": true,
      "inputs": [],
      "name": "currentTime",
      "outputs": [
        {
          "name": "",
          "type": "uint256"
        }
      ],
      "payable": false,
      "stateMutability": "view",
      "type": "function"
    }
  ],
  "bytecode": "0x60606040523415600e57600080fd5b609e8061001c6000396000f300606060405260043610603f576000357c0100000000000000000000000000000000000000000000000000000000900463ffffffff168063d18e81b3146044575b600080fd5b3415604e57600080fd5b6054606a565b6040518082815260200191505060405180910390f35b6000429050905600a165627a7a72305820aa2f91c13655271f66b0e9592c799c87f6fcd69e0dc1d0ce5ac06d37e624b8080029",
  "source": "pragma solidity 0.4.18;\n\nimport './interfaces/IKnowsTime.sol';\n\n// knows what time it is\ncontract KnowsTime is IKnowsTime {\n    function currentTime() public view returns (uint) {\n        return now;\n    }\n}\n",
  "sourcePath": "/home/moody/projects/ethersquares-contracts/contracts/KnowsTime.sol",
  "compiler": {
    "name": "solc",
    "version": "0.4.18+commit.9cf6e910.Emscripten.clang"
  },
  "schemaVersion": "1.0.1",
  "updatedAt": "2018-01-18T02:12:55.539Z"
}