{
  "contractName": "KnowsConstants",
  "abi": [
    {
      "constant": true,
      "inputs": [],
      "name": "GAME_START_TIME",
      "outputs": [
        {
          "name": "",
          "type": "uint256"
        }
      ],
      "payable": false,
      "stateMutability": "view",
      "type": "function"
    }
  ],
  "bytecode": "0x60606040523415600e57600080fd5b609e8061001c6000396000f300606060405260043610603f576000357c0100000000000000000000000000000000000000000000000000000000900463ffffffff168063ebb85502146044575b600080fd5b3415604e57600080fd5b6054606a565b6040518082815260200191505060405180910390f35b635a779778815600a165627a7a72305820d814d7d3022b254f05f25d9c267a84e965dd1ff49e2f8b380a33fff2269f187e0029",
  "source": "pragma solidity 0.4.18;\n\ncontract KnowsConstants {\n    // 2/4/18 @ 6:30 PM EST, the deadline for bets\n    uint public constant GAME_START_TIME = 1517787000;\n}\n",
  "sourcePath": "/home/moody/projects/ethersquares-contracts/contracts/KnowsConstants.sol",
  "compiler": {
    "name": "solc",
    "version": "0.4.18+commit.9cf6e910.Emscripten.clang"
  },
  "schemaVersion": "1.0.1",
  "updatedAt": "2018-01-18T02:12:55.539Z"
}