{
  "contractName": "MockKnowsTime",
  "abi": [
    {
      "constant": true,
      "inputs": [],
      "name": "time",
      "outputs": [
        {
          "name": "",
          "type": "uint256"
        }
      ],
      "payable": false,
      "stateMutability": "view",
      "type": "function"
    },
    {
      "constant": false,
      "inputs": [
        {
          "name": "_time",
          "type": "uint256"
        }
      ],
      "name": "setTime",
      "outputs": [],
      "payable": false,
      "stateMutability": "nonpayable",
      "type": "function"
    },
    {
      "constant": true,
      "inputs": [],
      "name": "currentTime",
      "outputs": [
        {
          "name": "",
          "type": "uint256"
        }
      ],
      "payable": false,
      "stateMutability": "view",
      "type": "function"
    },
    {
      "anonymous": false,
      "inputs": [
        {
          "indexed": false,
          "name": "time",
          "type": "uint256"
        }
      ],
      "name": "LogTimeSet",
      "type": "event"
    }
  ],
  "bytecode": "0x6060604052341561000f57600080fd5b61014d8061001e6000396000f300606060405260043610610057576000357c0100000000000000000000000000000000000000000000000000000000900463ffffffff16806316ada5471461005c5780633beb26c414610085578063d18e81b3146100a8575b600080fd5b341561006757600080fd5b61006f6100d1565b6040518082815260200191505060405180910390f35b341561009057600080fd5b6100a660048080359060200190919050506100d7565b005b34156100b357600080fd5b6100bb610118565b6040518082815260200191505060405180910390f35b60005481565b806000819055507fcd3b8d6796e6d2c381298ea3e2beb4080dbcd529f0f4829aa8dfcfc7cd51d35c816040518082815260200191505060405180910390a150565b600080549050905600a165627a7a72305820bfb479672ccddc1e22cb966448b881de2ec4cbe813cad6e05a2e755555e1b0100029",
  "source": "pragma solidity 0.4.18;\n\ncontract MockKnowsTime {\n    uint public time;\n\n    function currentTime() public view returns (uint) {\n        return time;\n    }\n\n    event LogTimeSet(uint time);\n\n    function setTime(uint _time) public {\n        time = _time;\n        LogTimeSet(_time);\n    }\n}\n",
  "sourcePath": "/home/moody/projects/ethersquares-contracts/contracts/mocks/MockKnowsTime.sol",
  "compiler": {
    "name": "solc",
    "version": "0.4.18+commit.9cf6e910.Emscripten.clang"
  },
  "schemaVersion": "1.0.1",
  "updatedAt": "2018-01-18T02:12:55.540Z"
}