{
  "contractName": "MockedTimeBoxes",
  "abi": [
    {
      "constant": true,
      "inputs": [],
      "name": "FEE_PERCENTAGE",
      "outputs": [
        {
          "name": "",
          "type": "uint256"
        }
      ],
      "payable": false,
      "stateMutability": "view",
      "type": "function"
    },
    {
      "constant": true,
      "inputs": [],
      "name": "time",
      "outputs": [
        {
          "name": "",
          "type": "uint256"
        }
      ],
      "payable": false,
      "stateMutability": "view",
      "type": "function"
    },
    {
      "constant": false,
      "inputs": [
        {
          "name": "_time",
          "type": "uint256"
        }
      ],
      "name": "setTime",
      "outputs": [],
      "payable": false,
      "stateMutability": "nonpayable",
      "type": "function"
    },
    {
      "constant": true,
      "inputs": [
        {
          "name": "",
          "type": "address"
        },
        {
          "name": "",
          "type": "uint256"
        },
        {
          "name": "",
          "type": "uint256"
        }
      ],
      "name": "boxStakesByUser",
      "outputs": [
        {
          "name": "",
          "type": "uint256"
        }
      ],
      "payable": false,
      "stateMutability": "view",
      "type": "function"
    },
    {
      "constant": false,
      "inputs": [
        {
          "name": "home",
          "type": "uint256"
        },
        {
          "name": "away",
          "type": "uint256"
        }
      ],
      "name": "bet",
      "outputs": [],
      "payable": true,
      "stateMutability": "payable",
      "type": "function"
    },
    {
      "constant": true,
      "inputs": [],
      "name": "oracle",
      "outputs": [
        {
          "name": "",
          "type": "address"
        }
      ],
      "payable": false,
      "stateMutability": "view",
      "type": "function"
    },
    {
      "constant": false,
      "inputs": [
        {
          "name": "winner",
          "type": "address"
        },
        {
          "name": "home",
          "type": "uint256"
        },
        {
          "name": "away",
          "type": "uint256"
        }
      ],
      "name": "sendWinningsTo",
      "outputs": [],
      "payable": false,
      "stateMutability": "nonpayable",
      "type": "function"
    },
    {
      "constant": true,
      "inputs": [
        {
          "name": "",
          "type": "uint256"
        },
        {
          "name": "",
          "type": "uint256"
        }
      ],
      "name": "totalBoxStakes",
      "outputs": [
        {
          "name": "",
          "type": "uint256"
        }
      ],
      "payable": false,
      "stateMutability": "view",
      "type": "function"
    },
    {
      "constant": true,
      "inputs": [],
      "name": "payee",
      "outputs": [
        {
          "name": "",
          "type": "address"
        }
      ],
      "payable": false,
      "stateMutability": "view",
      "type": "function"
    },
    {
      "constant": true,
      "inputs": [],
      "name": "totalStakes",
      "outputs": [
        {
          "name": "",
          "type": "uint256"
        }
      ],
      "payable": false,
      "stateMutability": "view",
      "type": "function"
    },
    {
      "constant": true,
      "inputs": [],
      "name": "currentTime",
      "outputs": [
        {
          "name": "",
          "type": "uint256"
        }
      ],
      "payable": false,
      "stateMutability": "view",
      "type": "function"
    },
    {
      "constant": true,
      "inputs": [],
      "name": "GAME_START_TIME",
      "outputs": [
        {
          "name": "",
          "type": "uint256"
        }
      ],
      "payable": false,
      "stateMutability": "view",
      "type": "function"
    },
    {
      "constant": false,
      "inputs": [
        {
          "name": "home",
          "type": "uint256"
        },
        {
          "name": "away",
          "type": "uint256"
        }
      ],
      "name": "collectWinnings",
      "outputs": [],
      "payable": false,
      "stateMutability": "nonpayable",
      "type": "function"
    },
    {
      "inputs": [
        {
          "name": "_oracle",
          "type": "address"
        },
        {
          "name": "_payee",
          "type": "address"
        }
      ],
      "payable": false,
      "stateMutability": "nonpayable",
      "type": "constructor"
    },
    {
      "anonymous": false,
      "inputs": [
        {
          "indexed": true,
          "name": "better",
          "type": "address"
        },
        {
          "indexed": true,
          "name": "home",
          "type": "uint256"
        },
        {
          "indexed": true,
          "name": "away",
          "type": "uint256"
        },
        {
          "indexed": false,
          "name": "stake",
          "type": "uint256"
        },
        {
          "indexed": false,
          "name": "fee",
          "type": "uint256"
        }
      ],
      "name": "LogBet",
      "type": "event"
    },
    {
      "anonymous": false,
      "inputs": [
        {
          "indexed": true,
          "name": "winner",
          "type": "address"
        },
        {
          "indexed": false,
          "name": "winnings",
          "type": "uint256"
        }
      ],
      "name": "LogPayout",
      "type": "event"
    }
  ],
  "bytecode": "0x6060604052341561000f57600080fd5b604051604080610c8983398101604052808051906020019091908051906020019091905050818180600160006101000a81548173ffffffffffffffffffffffffffffffffffffffff021916908373ffffffffffffffffffffffffffffffffffffffff160217905550816000806101000a81548173ffffffffffffffffffffffffffffffffffffffff021916908373ffffffffffffffffffffffffffffffffffffffff16021790555050505050610bbf806100ca6000396000f3006060604052600436106100c4576000357c0100000000000000000000000000000000000000000000000000000000900463ffffffff1680620b46f8146100c957806316ada547146100f25780633beb26c41461011b5780634ee831c41461013e5780636ffcc7191461019d5780637dc0d1d0146101be57806385be8815146102135780639ef40d781461025e578063ae90b2131461029e578063bf9befb1146102f3578063d18e81b31461031c578063ebb8550214610345578063eea825241461036e575b600080fd5b34156100d457600080fd5b6100dc61039a565b6040518082815260200191505060405180910390f35b34156100fd57600080fd5b61010561039f565b6040518082815260200191505060405180910390f35b341561012657600080fd5b61013c60048080359060200190919050506103a5565b005b341561014957600080fd5b610187600480803573ffffffffffffffffffffffffffffffffffffffff169060200190919080359060200190919080359060200190919050506103af565b6040518082815260200191505060405180910390f35b6101bc60048080359060200190919080359060200190919050506103e8565b005b34156101c957600080fd5b6101d1610694565b604051808273ffffffffffffffffffffffffffffffffffffffff1673ffffffffffffffffffffffffffffffffffffffff16815260200191505060405180910390f35b341561021e57600080fd5b61025c600480803573ffffffffffffffffffffffffffffffffffffffff169060200190919080359060200190919080359060200190919050506106b9565b005b341561026957600080fd5b6102886004808035906020019091908035906020019091905050610a51565b6040518082815260200191505060405180910390f35b34156102a957600080fd5b6102b1610a7d565b604051808273ffffffffffffffffffffffffffffffffffffffff1673ffffffffffffffffffffffffffffffffffffffff16815260200191505060405180910390f35b34156102fe57600080fd5b610306610aa3565b6040518082815260200191505060405180910390f35b341561032757600080fd5b61032f610aa9565b6040518082815260200191505060405180910390f35b341561035057600080fd5b610358610ab3565b6040518082815260200191505060405180910390f35b341561037957600080fd5b6103986004808035906020019091908035906020019091905050610abb565b005b600581565b60685481565b8060688190555050565b600260205282600052604060002082600a811015156103ca57fe5b600a020181600a811015156103db57fe5b0160009250925050505481565b6000808383600082101580156103fe5750600a82105b151561040957600080fd5b6000811015801561041a5750600a81105b151561042557600080fd5b60003411151561043457600080fd5b635a779778610441610aa9565b10151561044d57600080fd5b6104746064610466600534610b0690919063ffffffff16565b610b4190919063ffffffff16565b9350600160009054906101000a900473ffffffffffffffffffffffffffffffffffffffff1673ffffffffffffffffffffffffffffffffffffffff166108fc859081150290604051600060405180830381858888f1935050505015156104d857600080fd5b6104eb8434610b5c90919063ffffffff16565b925061050283606754610b7590919063ffffffff16565b60678190555061057983600260003373ffffffffffffffffffffffffffffffffffffffff1673ffffffffffffffffffffffffffffffffffffffff16815260200190815260200160002088600a8110151561055857fe5b600a020187600a8110151561056957fe5b0154610b7590919063ffffffff16565b600260003373ffffffffffffffffffffffffffffffffffffffff1673ffffffffffffffffffffffffffffffffffffffff16815260200190815260200160002087600a811015156105c557fe5b600a020186600a811015156105d657fe5b018190555061060f83600388600a811015156105ee57fe5b600a020187600a811015156105ff57fe5b0154610b7590919063ffffffff16565b600387600a8110151561061e57fe5b600a020186600a8110151561062f57fe5b018190555084863373ffffffffffffffffffffffffffffffffffffffff167f932e7d9dfe5d3d467e9a59c299458fa146ef11f9d3093857e94ac71aef75e1068688604051808381526020018281526020019250505060405180910390a4505050505050565b6000809054906101000a900473ffffffffffffffffffffffffffffffffffffffff1681565b60008060008060008686600082101580156106d45750600a82105b15156106df57600080fd5b600081101580156106f05750600a81105b15156106fb57600080fd5b6000809054906101000a900473ffffffffffffffffffffffffffffffffffffffff1673ffffffffffffffffffffffffffffffffffffffff16638d4e40836000604051602001526040518163ffffffff167c0100000000000000000000000000000000000000000000000000000000028152600401602060405180830381600087803b151561078857600080fd5b6102c65a03f1151561079957600080fd5b5050506040518051905015156107ae57600080fd5b6000809054906101000a900473ffffffffffffffffffffffffffffffffffffffff1673ffffffffffffffffffffffffffffffffffffffff16635922b4a28a8a6000604051604001526040518363ffffffff167c010000000000000000000000000000000000000000000000000000000002815260040180838152602001828152602001925050506040805180830381600087803b151561084d57600080fd5b6102c65a03f1151561085e57600080fd5b5050506040518051906020018051905096509650600260008b73ffffffffffffffffffffffffffffffffffffffff1673ffffffffffffffffffffffffffffffffffffffff16815260200190815260200160002089600a811015156108be57fe5b600a020188600a811015156108cf57fe5b01549450600389600a811015156108e257fe5b600a020188600a811015156108f357fe5b0154935061094284610934886109268b6109186067548c610b0690919063ffffffff16565b610b0690919063ffffffff16565b610b4190919063ffffffff16565b610b4190919063ffffffff16565b925060008311151561095357600080fd5b6000600260008c73ffffffffffffffffffffffffffffffffffffffff1673ffffffffffffffffffffffffffffffffffffffff1681526020019081526020016000208a600a811015156109a157fe5b600a020189600a811015156109b257fe5b01819055508973ffffffffffffffffffffffffffffffffffffffff166108fc849081150290604051600060405180830381858888f1935050505015156109f757600080fd5b8973ffffffffffffffffffffffffffffffffffffffff167f7d6963073a93103d7a336ea21c7f029ad757c9ef4c0c6ad0ff86c689480e0ed8846040518082815260200191505060405180910390a250505050505050505050565b600382600a81101515610a6057fe5b600a020181600a81101515610a7157fe5b01600091509150505481565b600160009054906101000a900473ffffffffffffffffffffffffffffffffffffffff1681565b60675481565b6000606854905090565b635a77977881565b818160008210158015610ace5750600a82105b1515610ad957600080fd5b60008110158015610aea5750600a81105b1515610af557600080fd5b610b003385856106b9565b50505050565b6000806000841415610b1b5760009150610b3a565b8284029050828482811515610b2c57fe5b04141515610b3657fe5b8091505b5092915050565b6000808284811515610b4f57fe5b0490508091505092915050565b6000828211151515610b6a57fe5b818303905092915050565b6000808284019050838110151515610b8957fe5b80915050929150505600a165627a7a723058200d2e2ead6d04b799e1e2aba9f3e97844ee0a03716365d9725f2e260e9d1152860029",
  "source": "pragma solidity 0.4.18;\n\nimport '../Boxes.sol';\nimport './MockKnowsTime.sol';\n\ncontract MockedTimeBoxes is Boxes, MockKnowsTime {\n    function MockedTimeBoxes(IScoreOracle _oracle, address _payee) Boxes(_oracle, _payee) public {}\n}\n",
  "sourcePath": "/Users/moodysalem/Projects/contracts/contracts/mocks/MockedTimeBoxes.sol",
  "compiler": {
    "name": "solc",
    "version": "0.4.18+commit.9cf6e910.Emscripten.clang"
  },
  "schemaVersion": "1.0.1",
  "updatedAt": "2018-01-14T13:58:25.349Z"
}