{
  "contractName": "MockedTimeAcceptedScoreOracle",
  "abi": [
    {
      "constant": true,
      "inputs": [],
      "name": "totalVotes",
      "outputs": [
        {
          "name": "",
          "type": "uint256"
        }
      ],
      "payable": false,
      "stateMutability": "view",
      "type": "function"
    },
    {
      "constant": true,
      "inputs": [],
      "name": "affirmations",
      "outputs": [
        {
          "name": "",
          "type": "uint256"
        }
      ],
      "payable": false,
      "stateMutability": "view",
      "type": "function"
    },
    {
      "constant": true,
      "inputs": [],
      "name": "time",
      "outputs": [
        {
          "name": "",
          "type": "uint256"
        }
      ],
      "payable": false,
      "stateMutability": "view",
      "type": "function"
    },
    {
      "constant": true,
      "inputs": [],
      "name": "winsReported",
      "outputs": [
        {
          "name": "",
          "type": "uint256"
        }
      ],
      "payable": false,
      "stateMutability": "view",
      "type": "function"
    },
    {
      "constant": false,
      "inputs": [],
      "name": "accept",
      "outputs": [],
      "payable": false,
      "stateMutability": "nonpayable",
      "type": "function"
    },
    {
      "constant": true,
      "inputs": [
        {
          "name": "",
          "type": "uint256"
        },
        {
          "name": "",
          "type": "uint256"
        }
      ],
      "name": "squareWins",
      "outputs": [
        {
          "name": "",
          "type": "uint256"
        }
      ],
      "payable": false,
      "stateMutability": "view",
      "type": "function"
    },
    {
      "constant": false,
      "inputs": [
        {
          "name": "_time",
          "type": "uint256"
        }
      ],
      "name": "setTime",
      "outputs": [],
      "payable": false,
      "stateMutability": "nonpayable",
      "type": "function"
    },
    {
      "constant": true,
      "inputs": [],
      "name": "votingPeriodBlockNumber",
      "outputs": [
        {
          "name": "",
          "type": "uint256"
        }
      ],
      "payable": false,
      "stateMutability": "view",
      "type": "function"
    },
    {
      "constant": false,
      "inputs": [
        {
          "name": "affirm",
          "type": "bool"
        }
      ],
      "name": "vote",
      "outputs": [],
      "payable": false,
      "stateMutability": "nonpayable",
      "type": "function"
    },
    {
      "constant": false,
      "inputs": [],
      "name": "finalize",
      "outputs": [],
      "payable": false,
      "stateMutability": "nonpayable",
      "type": "function"
    },
    {
      "constant": false,
      "inputs": [
        {
          "name": "_voterStakes",
          "type": "address"
        }
      ],
      "name": "setVoterStakesContract",
      "outputs": [],
      "payable": false,
      "stateMutability": "nonpayable",
      "type": "function"
    },
    {
      "constant": true,
      "inputs": [],
      "name": "accepted",
      "outputs": [
        {
          "name": "",
          "type": "bool"
        }
      ],
      "payable": false,
      "stateMutability": "view",
      "type": "function"
    },
    {
      "constant": false,
      "inputs": [
        {
          "name": "home",
          "type": "uint256"
        },
        {
          "name": "away",
          "type": "uint256"
        },
        {
          "name": "wins",
          "type": "uint256"
        }
      ],
      "name": "setSquareWins",
      "outputs": [],
      "payable": false,
      "stateMutability": "nonpayable",
      "type": "function"
    },
    {
      "constant": true,
      "inputs": [],
      "name": "VOTING_PERIOD_DURATION",
      "outputs": [
        {
          "name": "",
          "type": "uint256"
        }
      ],
      "payable": false,
      "stateMutability": "view",
      "type": "function"
    },
    {
      "constant": true,
      "inputs": [],
      "name": "isFinalized",
      "outputs": [
        {
          "name": "",
          "type": "bool"
        }
      ],
      "payable": false,
      "stateMutability": "view",
      "type": "function"
    },
    {
      "constant": true,
      "inputs": [],
      "name": "owner",
      "outputs": [
        {
          "name": "",
          "type": "address"
        }
      ],
      "payable": false,
      "stateMutability": "view",
      "type": "function"
    },
    {
      "constant": true,
      "inputs": [],
      "name": "voterStakes",
      "outputs": [
        {
          "name": "",
          "type": "address"
        }
      ],
      "payable": false,
      "stateMutability": "view",
      "type": "function"
    },
    {
      "constant": true,
      "inputs": [],
      "name": "finalized",
      "outputs": [
        {
          "name": "",
          "type": "bool"
        }
      ],
      "payable": false,
      "stateMutability": "view",
      "type": "function"
    },
    {
      "constant": true,
      "inputs": [],
      "name": "SCORE_REPORT_START_TIME",
      "outputs": [
        {
          "name": "",
          "type": "uint256"
        }
      ],
      "payable": false,
      "stateMutability": "view",
      "type": "function"
    },
    {
      "constant": false,
      "inputs": [],
      "name": "unfinalize",
      "outputs": [],
      "payable": false,
      "stateMutability": "nonpayable",
      "type": "function"
    },
    {
      "constant": true,
      "inputs": [],
      "name": "TOTAL_WINS",
      "outputs": [
        {
          "name": "",
          "type": "uint256"
        }
      ],
      "payable": false,
      "stateMutability": "view",
      "type": "function"
    },
    {
      "constant": true,
      "inputs": [],
      "name": "currentTime",
      "outputs": [
        {
          "name": "",
          "type": "uint256"
        }
      ],
      "payable": false,
      "stateMutability": "view",
      "type": "function"
    },
    {
      "constant": true,
      "inputs": [
        {
          "name": "home",
          "type": "uint256"
        },
        {
          "name": "away",
          "type": "uint256"
        }
      ],
      "name": "getSquareWins",
      "outputs": [
        {
          "name": "numSquareWins",
          "type": "uint256"
        },
        {
          "name": "totalWins",
          "type": "uint256"
        }
      ],
      "payable": false,
      "stateMutability": "view",
      "type": "function"
    },
    {
      "constant": true,
      "inputs": [],
      "name": "votingPeriodStartTime",
      "outputs": [
        {
          "name": "",
          "type": "uint256"
        }
      ],
      "payable": false,
      "stateMutability": "view",
      "type": "function"
    },
    {
      "constant": true,
      "inputs": [],
      "name": "GAME_START_TIME",
      "outputs": [
        {
          "name": "",
          "type": "uint256"
        }
      ],
      "payable": false,
      "stateMutability": "view",
      "type": "function"
    },
    {
      "constant": false,
      "inputs": [
        {
          "name": "newOwner",
          "type": "address"
        }
      ],
      "name": "transferOwnership",
      "outputs": [],
      "payable": false,
      "stateMutability": "nonpayable",
      "type": "function"
    },
    {
      "anonymous": false,
      "inputs": [
        {
          "indexed": false,
          "name": "time",
          "type": "uint256"
        }
      ],
      "name": "LogTimeSet",
      "type": "event"
    },
    {
      "anonymous": false,
      "inputs": [
        {
          "indexed": false,
          "name": "time",
          "type": "uint256"
        }
      ],
      "name": "LogAccepted",
      "type": "event"
    },
    {
      "anonymous": false,
      "inputs": [
        {
          "indexed": false,
          "name": "time",
          "type": "uint256"
        }
      ],
      "name": "LogUnfinalized",
      "type": "event"
    },
    {
      "anonymous": false,
      "inputs": [
        {
          "indexed": true,
          "name": "voter",
          "type": "address"
        },
        {
          "indexed": true,
          "name": "affirm",
          "type": "bool"
        },
        {
          "indexed": false,
          "name": "stake",
          "type": "uint256"
        }
      ],
      "name": "LogVote",
      "type": "event"
    },
    {
      "anonymous": false,
      "inputs": [
        {
          "indexed": false,
          "name": "home",
          "type": "uint256"
        },
        {
          "indexed": false,
          "name": "away",
          "type": "uint256"
        },
        {
          "indexed": false,
          "name": "wins",
          "type": "uint256"
        }
      ],
      "name": "LogSquareWinsUpdated",
      "type": "event"
    },
    {
      "anonymous": false,
      "inputs": [
        {
          "indexed": false,
          "name": "time",
          "type": "uint256"
        }
      ],
      "name": "LogFinalized",
      "type": "event"
    },
    {
      "anonymous": false,
      "inputs": [
        {
          "indexed": true,
          "name": "previousOwner",
          "type": "address"
        },
        {
          "indexed": true,
          "name": "newOwner",
          "type": "address"
        }
      ],
      "name": "OwnershipTransferred",
      "type": "event"
    }
  ],
  "bytecode": "0x60606040526000600155336000806101000a81548173ffffffffffffffffffffffffffffffffffffffff021916908373ffffffffffffffffffffffffffffffffffffffff1602179055506112f7806100586000396000f300606060405260043610610154576000357c0100000000000000000000000000000000000000000000000000000000900463ffffffff1680630d15fd771461015957806312a2716d1461018257806316ada547146101ab57806316b07323146101d45780632852b71c146101fd578063395382ee146102125780633beb26c414610252578063466df592146102755780634b9f5c981461029e5780634bb278f3146102c35780636080af05146102d857806367fe5a0c146103115780636bceead71461033e57806382a3f98d146103735780638d4e40831461039c5780638da5cb5b146103c9578063b033cab91461041e578063b3f05b9714610473578063bd06e777146104a0578063c0b39e68146104c9578063cbb45120146104de578063d18e81b314610507578063d5a8487f14610530578063e55a6ef614610577578063ebb85502146105a0578063f2fde38b146105c9575b600080fd5b341561016457600080fd5b61016c610602565b6040518082815260200191505060405180910390f35b341561018d57600080fd5b610195610608565b6040518082815260200191505060405180910390f35b34156101b657600080fd5b6101be61060e565b6040518082815260200191505060405180910390f35b34156101df57600080fd5b6101e7610614565b6040518082815260200191505060405180910390f35b341561020857600080fd5b61021061061a565b005b341561021d57600080fd5b61023c6004808035906020019091908035906020019091905050610706565b6040518082815260200191505060405180910390f35b341561025d57600080fd5b6102736004808035906020019091905050610732565b005b341561028057600080fd5b610288610773565b6040518082815260200191505060405180910390f35b34156102a957600080fd5b6102c160048080351515906020019091905050610779565b005b34156102ce57600080fd5b6102d6610a99565b005b34156102e357600080fd5b61030f600480803573ffffffffffffffffffffffffffffffffffffffff16906020019091905050610b23565b005b341561031c57600080fd5b610324610c1f565b604051808215151515815260200191505060405180910390f35b341561034957600080fd5b6103716004808035906020019091908035906020019091908035906020019091905050610c32565b005b341561037e57600080fd5b610386610e1e565b6040518082815260200191505060405180910390f35b34156103a757600080fd5b6103af610e25565b604051808215151515815260200191505060405180910390f35b34156103d457600080fd5b6103dc610e4c565b604051808273ffffffffffffffffffffffffffffffffffffffff1673ffffffffffffffffffffffffffffffffffffffff16815260200191505060405180910390f35b341561042957600080fd5b610431610e71565b604051808273ffffffffffffffffffffffffffffffffffffffff1673ffffffffffffffffffffffffffffffffffffffff16815260200191505060405180910390f35b341561047e57600080fd5b610486610e97565b604051808215151515815260200191505060405180910390f35b34156104ab57600080fd5b6104b3610eaa565b6040518082815260200191505060405180910390f35b34156104d457600080fd5b6104dc610eb7565b005b34156104e957600080fd5b6104f1610fa0565b6040518082815260200191505060405180910390f35b341561051257600080fd5b61051a610fa5565b6040518082815260200191505060405180910390f35b341561053b57600080fd5b61055a6004808035906020019091908035906020019091905050610faf565b604051808381526020018281526020019250505060405180910390f35b341561058257600080fd5b61058a610fe1565b6040518082815260200191505060405180910390f35b34156105ab57600080fd5b6105b3610fe7565b6040518082815260200191505060405180910390f35b34156105d457600080fd5b610600600480803573ffffffffffffffffffffffffffffffffffffffff16906020019091905050610fef565b005b606b5481565b606a5481565b606e5481565b60015481565b606660009054906101000a900460ff16151561063557600080fd5b62093a8060675401610645610fa5565b1015151561065257600080fd5b606960009054906101000a900460ff1615151561066e57600080fd5b6201046a61069e606b54610690620186a0606a5461114490919063ffffffff16565b61117f90919063ffffffff16565b101515156106ab57600080fd5b6001606960006101000a81548160ff0219169083151502179055507f7202997eccc0ae4840bfa4c3057174b183764660915136057273aeafe7ad97886106ef610fa5565b6040518082815260200191505060405180910390a1565b600282600a8110151561071557fe5b600a020181600a8110151561072657fe5b01600091509150505481565b80606e819055507fcd3b8d6796e6d2c381298ea3e2beb4080dbcd529f0f4829aa8dfcfc7cd51d35c816040518082815260200191505060405180910390a150565b60685481565b60008060006067541415151561078e57600080fd5b606660009054906101000a900460ff1615156107a957600080fd5b606960009054906101000a900460ff161515156107c557600080fd5b606d60009054906101000a900473ffffffffffffffffffffffffffffffffffffffff1673ffffffffffffffffffffffffffffffffffffffff1663fb4460dd336068546000604051602001526040518363ffffffff167c0100000000000000000000000000000000000000000000000000000000028152600401808373ffffffffffffffffffffffffffffffffffffffff1673ffffffffffffffffffffffffffffffffffffffff16815260200182815260200192505050602060405180830381600087803b151561089457600080fd5b6102c65a03f115156108a557600080fd5b5050506040518051905091506000821115156108c057600080fd5b606c6000606854815260200190815260200160002060003373ffffffffffffffffffffffffffffffffffffffff1673ffffffffffffffffffffffffffffffffffffffff16815260200190815260200160002090508060000160019054906101000a900460ff1615156109a75760018160000160016101000a81548160ff021916908315150217905550828160000160006101000a81548160ff02191690831515021790555061097a82606b5461119a90919063ffffffff16565b606b8190555082156109a25761099b82606a5461119a90919063ffffffff16565b606a819055505b610a43565b8280156109c357508060000160009054906101000a900460ff16155b156109e8576109dd82606a5461119a90919063ffffffff16565b606a81905550610a26565b82158015610a0457508060000160009054906101000a900460ff165b15610a2557610a1e82606a546111b890919063ffffffff16565b606a819055505b5b828160000160006101000a81548160ff0219169083151502179055505b8215153373ffffffffffffffffffffffffffffffffffffffff167f33756534de162d89bcd9858cf7ce9e7b00e56d9b7785a1b19d6fb0498d49c832846040518082815260200191505060405180910390a3505050565b6000809054906101000a900473ffffffffffffffffffffffffffffffffffffffff1673ffffffffffffffffffffffffffffffffffffffff163373ffffffffffffffffffffffffffffffffffffffff16141515610af457600080fd5b610afc6111d1565b6000606a819055506000606b81905550610b14610fa5565b60678190555043606881905550565b6000809054906101000a900473ffffffffffffffffffffffffffffffffffffffff1673ffffffffffffffffffffffffffffffffffffffff163373ffffffffffffffffffffffffffffffffffffffff16141515610b7e57600080fd5b600073ffffffffffffffffffffffffffffffffffffffff16606d60009054906101000a900473ffffffffffffffffffffffffffffffffffffffff1673ffffffffffffffffffffffffffffffffffffffff16141515610bdb57600080fd5b80606d60006101000a81548173ffffffffffffffffffffffffffffffffffffffff021916908373ffffffffffffffffffffffffffffffffffffffff16021790555050565b606960009054906101000a900460ff1681565b60008060009054906101000a900473ffffffffffffffffffffffffffffffffffffffff1673ffffffffffffffffffffffffffffffffffffffff163373ffffffffffffffffffffffffffffffffffffffff16141515610c8f57600080fd5b838360008210158015610ca25750600a82105b1515610cad57600080fd5b60008110158015610cbe5750600a81105b1515610cc957600080fd5b62015180635a77977801610cdb610fa5565b10151515610ce857600080fd5b60048411151515610cf857600080fd5b606660009054906101000a900460ff16151515610d1457600080fd5b600286600a81101515610d2357fe5b600a020185600a81101515610d3457fe5b0154925083831115610d7257610d67610d5685856111b890919063ffffffff16565b6001546111b890919063ffffffff16565b600181905550610da9565b83831015610da857610da1610d9084866111b890919063ffffffff16565b60015461119a90919063ffffffff16565b6001819055505b5b83600287600a81101515610db957fe5b600a020186600a81101515610dca57fe5b01819055507ff05b854fc793f12856c5502dbf67bfbf1f80b60e7f6c0a70ea322a7046cc1b2a86868660405180848152602001838152602001828152602001935050505060405180910390a1505050505050565b62093a8081565b6000610e2f6112b4565b8015610e475750606960009054906101000a900460ff165b905090565b6000809054906101000a900473ffffffffffffffffffffffffffffffffffffffff1681565b606d60009054906101000a900473ffffffffffffffffffffffffffffffffffffffff1681565b606660009054906101000a900460ff1681565b62015180635a7797780181565b606660009054906101000a900460ff161515610ed257600080fd5b606960009054906101000a900460ff16151515610eee57600080fd5b62093a8060675401610efe610fa5565b10151515610f0b57600080fd5b611a0a610f39606b54610f2b612710606a5461114490919063ffffffff16565b61117f90919063ffffffff16565b101515610f4557600080fd5b6000606660006101000a81548160ff0219169083151502179055507fed8e9f2c27ae2a0214e991ebbe05683b56a1db57428e4b29a08b02a40519feeb610f89610fa5565b6040518082815260200191505060405180910390a1565b600481565b6000606e54905090565b600080600284600a81101515610fc157fe5b600a020183600a81101515610fd257fe5b01546004915091509250929050565b60675481565b635a77977881565b6000809054906101000a900473ffffffffffffffffffffffffffffffffffffffff1673ffffffffffffffffffffffffffffffffffffffff163373ffffffffffffffffffffffffffffffffffffffff1614151561104a57600080fd5b600073ffffffffffffffffffffffffffffffffffffffff168173ffffffffffffffffffffffffffffffffffffffff161415151561108657600080fd5b8073ffffffffffffffffffffffffffffffffffffffff166000809054906101000a900473ffffffffffffffffffffffffffffffffffffffff1673ffffffffffffffffffffffffffffffffffffffff167f8be0079c531659141344cd1fd0a4f28419497f9722a3daafe3b4186f6b6457e060405160405180910390a3806000806101000a81548173ffffffffffffffffffffffffffffffffffffffff021916908373ffffffffffffffffffffffffffffffffffffffff16021790555050565b60008060008414156111595760009150611178565b828402905082848281151561116a57fe5b0414151561117457fe5b8091505b5092915050565b600080828481151561118d57fe5b0490508091505092915050565b60008082840190508381101515156111ae57fe5b8091505092915050565b60008282111515156111c657fe5b818303905092915050565b6000809054906101000a900473ffffffffffffffffffffffffffffffffffffffff1673ffffffffffffffffffffffffffffffffffffffff163373ffffffffffffffffffffffffffffffffffffffff1614151561122c57600080fd5b600460015414151561123d57600080fd5b606660009054906101000a900460ff1615151561125957600080fd5b6001606660006101000a81548160ff0219169083151502179055507f32e459b415103ae8dc9c4203aba7b51313bb22f6088ee399170c34fad088503761129d610fa5565b6040518082815260200191505060405180910390a1565b6000606660009054906101000a900460ff169050905600a165627a7a72305820bfa42be1ebbe28520015bd2a05f4a45067445e97ab4d1c73ea46eeb3b2ae70430029",
  "source": "pragma solidity 0.4.18;\n\nimport '../AcceptedScoreOracle.sol';\nimport './MockKnowsTime.sol';\n\ncontract MockedTimeAcceptedScoreOracle is AcceptedScoreOracle, MockKnowsTime {\n}\n",
  "sourcePath": "/home/moody/projects/ethersquares-contracts/contracts/mocks/MockedTimeAcceptedScoreOracle.sol",
  "compiler": {
    "name": "solc",
    "version": "0.4.18+commit.9cf6e910.Emscripten.clang"
  },
  "schemaVersion": "1.0.1",
  "updatedAt": "2018-01-18T03:35:22.125Z"
}