{
  "contractName": "MockedTimeSquares",
  "abi": [
    {
      "constant": true,
      "inputs": [],
      "name": "time",
      "outputs": [
        {
          "name": "",
          "type": "uint256"
        }
      ],
      "payable": false,
      "stateMutability": "view",
      "type": "function"
    },
    {
      "constant": false,
      "inputs": [
        {
          "name": "_time",
          "type": "uint256"
        }
      ],
      "name": "setTime",
      "outputs": [],
      "payable": false,
      "stateMutability": "nonpayable",
      "type": "function"
    },
    {
      "constant": true,
      "inputs": [
        {
          "name": "",
          "type": "address"
        },
        {
          "name": "",
          "type": "uint256"
        },
        {
          "name": "",
          "type": "uint256"
        }
      ],
      "name": "totalSquareStakesByUser",
      "outputs": [
        {
          "name": "",
          "type": "uint256"
        }
      ],
      "payable": false,
      "stateMutability": "view",
      "type": "function"
    },
    {
      "constant": true,
      "inputs": [
        {
          "name": "",
          "type": "address"
        }
      ],
      "name": "totalUserStakes",
      "outputs": [
        {
          "name": "",
          "type": "uint256"
        }
      ],
      "payable": false,
      "stateMutability": "view",
      "type": "function"
    },
    {
      "constant": false,
      "inputs": [
        {
          "name": "home",
          "type": "uint256"
        },
        {
          "name": "away",
          "type": "uint256"
        }
      ],
      "name": "bet",
      "outputs": [],
      "payable": true,
      "stateMutability": "payable",
      "type": "function"
    },
    {
      "constant": true,
      "inputs": [],
      "name": "oracle",
      "outputs": [
        {
          "name": "",
          "type": "address"
        }
      ],
      "payable": false,
      "stateMutability": "view",
      "type": "function"
    },
    {
      "constant": true,
      "inputs": [
        {
          "name": "",
          "type": "uint256"
        },
        {
          "name": "",
          "type": "uint256"
        }
      ],
      "name": "totalSquareStakes",
      "outputs": [
        {
          "name": "",
          "type": "uint256"
        }
      ],
      "payable": false,
      "stateMutability": "view",
      "type": "function"
    },
    {
      "constant": true,
      "inputs": [],
      "name": "totalStakes",
      "outputs": [
        {
          "name": "",
          "type": "uint256"
        }
      ],
      "payable": false,
      "stateMutability": "view",
      "type": "function"
    },
    {
      "constant": false,
      "inputs": [
        {
          "name": "home",
          "type": "uint256"
        },
        {
          "name": "away",
          "type": "uint256"
        },
        {
          "name": "donationPercentage",
          "type": "uint256"
        }
      ],
      "name": "collectWinnings",
      "outputs": [],
      "payable": false,
      "stateMutability": "nonpayable",
      "type": "function"
    },
    {
      "constant": true,
      "inputs": [
        {
          "name": "user",
          "type": "address"
        },
        {
          "name": "home",
          "type": "uint256"
        },
        {
          "name": "away",
          "type": "uint256"
        }
      ],
      "name": "getWinnings",
      "outputs": [
        {
          "name": "winnings",
          "type": "uint256"
        }
      ],
      "payable": false,
      "stateMutability": "view",
      "type": "function"
    },
    {
      "constant": true,
      "inputs": [],
      "name": "developer",
      "outputs": [
        {
          "name": "",
          "type": "address"
        }
      ],
      "payable": false,
      "stateMutability": "view",
      "type": "function"
    },
    {
      "constant": true,
      "inputs": [],
      "name": "currentTime",
      "outputs": [
        {
          "name": "",
          "type": "uint256"
        }
      ],
      "payable": false,
      "stateMutability": "view",
      "type": "function"
    },
    {
      "constant": true,
      "inputs": [],
      "name": "GAME_START_TIME",
      "outputs": [
        {
          "name": "",
          "type": "uint256"
        }
      ],
      "payable": false,
      "stateMutability": "view",
      "type": "function"
    },
    {
      "constant": true,
      "inputs": [
        {
          "name": "voter",
          "type": "address"
        },
        {
          "name": "asOfBlock",
          "type": "uint256"
        }
      ],
      "name": "getVoterStakes",
      "outputs": [
        {
          "name": "",
          "type": "uint256"
        }
      ],
      "payable": false,
      "stateMutability": "view",
      "type": "function"
    },
    {
      "inputs": [
        {
          "name": "_oracle",
          "type": "address"
        },
        {
          "name": "_developer",
          "type": "address"
        }
      ],
      "payable": false,
      "stateMutability": "nonpayable",
      "type": "constructor"
    },
    {
      "anonymous": false,
      "inputs": [
        {
          "indexed": false,
          "name": "time",
          "type": "uint256"
        }
      ],
      "name": "LogTimeSet",
      "type": "event"
    },
    {
      "anonymous": false,
      "inputs": [
        {
          "indexed": true,
          "name": "better",
          "type": "address"
        },
        {
          "indexed": true,
          "name": "home",
          "type": "uint256"
        },
        {
          "indexed": true,
          "name": "away",
          "type": "uint256"
        },
        {
          "indexed": false,
          "name": "stake",
          "type": "uint256"
        }
      ],
      "name": "LogBet",
      "type": "event"
    },
    {
      "anonymous": false,
      "inputs": [
        {
          "indexed": true,
          "name": "winner",
          "type": "address"
        },
        {
          "indexed": false,
          "name": "payout",
          "type": "uint256"
        },
        {
          "indexed": false,
          "name": "donation",
          "type": "uint256"
        }
      ],
      "name": "LogPayout",
      "type": "event"
    }
  ],
  "bytecode": "0x6060604052341561000f57600080fd5b604051604080610e63833981016040528080519060200190919080519060200190919050508181816000806101000a81548173ffffffffffffffffffffffffffffffffffffffff021916908373ffffffffffffffffffffffffffffffffffffffff16021790555080600160006101000a81548173ffffffffffffffffffffffffffffffffffffffff021916908373ffffffffffffffffffffffffffffffffffffffff16021790555050505050610d99806100ca6000396000f3006060604052600436106100d0576000357c0100000000000000000000000000000000000000000000000000000000900463ffffffff16806316ada547146100d55780633beb26c4146100fe5780633eb2cb02146101215780634543754f146101805780636ffcc719146101cd5780637dc0d1d0146101ee57806396a69d0414610243578063bf9befb114610283578063c179186e146102ac578063c7ebc8fe146102e1578063ca4b208b14610340578063d18e81b314610395578063ebb85502146103be578063fb4460dd146103e7575b600080fd5b34156100e057600080fd5b6100e861043d565b6040518082815260200191505060405180910390f35b341561010957600080fd5b61011f6004808035906020019091905050610443565b005b341561012c57600080fd5b61016a600480803573ffffffffffffffffffffffffffffffffffffffff16906020019091908035906020019091908035906020019091905050610484565b6040518082815260200191505060405180910390f35b341561018b57600080fd5b6101b7600480803573ffffffffffffffffffffffffffffffffffffffff169060200190919050506104bd565b6040518082815260200191505060405180910390f35b6101ec60048080359060200190919080359060200190919050506104d5565b005b34156101f957600080fd5b61020161076f565b604051808273ffffffffffffffffffffffffffffffffffffffff1673ffffffffffffffffffffffffffffffffffffffff16815260200191505060405180910390f35b341561024e57600080fd5b61026d6004808035906020019091908035906020019091905050610794565b6040518082815260200191505060405180910390f35b341561028e57600080fd5b6102966107c0565b6040518082815260200191505060405180910390f35b34156102b757600080fd5b6102df60048080359060200190919080359060200190919080359060200190919050506107c6565b005b34156102ec57600080fd5b61032a600480803573ffffffffffffffffffffffffffffffffffffffff16906020019091908035906020019091908035906020019091905050610aa7565b6040518082815260200191505060405180910390f35b341561034b57600080fd5b610353610c45565b604051808273ffffffffffffffffffffffffffffffffffffffff1673ffffffffffffffffffffffffffffffffffffffff16815260200191505060405180910390f35b34156103a057600080fd5b6103a8610c6b565b6040518082815260200191505060405180910390f35b34156103c957600080fd5b6103d1610c75565b6040518082815260200191505060405180910390f35b34156103f257600080fd5b610427600480803573ffffffffffffffffffffffffffffffffffffffff16906020019091908035906020019091905050610c7d565b6040518082815260200191505060405180910390f35b60695481565b806069819055507fcd3b8d6796e6d2c381298ea3e2beb4080dbcd529f0f4829aa8dfcfc7cd51d35c816040518082815260200191505060405180910390a150565b600260205282600052604060002082600a8110151561049f57fe5b600a020181600a811015156104b057fe5b0160009250925050505481565b60676020528060005260406000206000915090505481565b60008282600082101580156104ea5750600a82105b15156104f557600080fd5b600081101580156105065750600a81105b151561051157600080fd5b60003411151561052057600080fd5b635a77977861052d610c6b565b10151561053957600080fd5b34925061055183606854610cc790919063ffffffff16565b6068819055506105a983606760003373ffffffffffffffffffffffffffffffffffffffff1673ffffffffffffffffffffffffffffffffffffffff16815260200190815260200160002054610cc790919063ffffffff16565b606760003373ffffffffffffffffffffffffffffffffffffffff1673ffffffffffffffffffffffffffffffffffffffff1681526020019081526020016000208190555061065d83600260003373ffffffffffffffffffffffffffffffffffffffff1673ffffffffffffffffffffffffffffffffffffffff16815260200190815260200160002087600a8110151561063c57fe5b600a020186600a8110151561064d57fe5b0154610cc790919063ffffffff16565b600260003373ffffffffffffffffffffffffffffffffffffffff1673ffffffffffffffffffffffffffffffffffffffff16815260200190815260200160002086600a811015156106a957fe5b600a020185600a811015156106ba57fe5b01819055506106f383600387600a811015156106d257fe5b600a020186600a811015156106e357fe5b0154610cc790919063ffffffff16565b600386600a8110151561070257fe5b600a020185600a8110151561071357fe5b018190555083853373ffffffffffffffffffffffffffffffffffffffff167f063f4540040cf99a22f577ef321c170763020e6277e47275ed9b3d17ec14e13d866040518082815260200191505060405180910390a45050505050565b6000809054906101000a900473ffffffffffffffffffffffffffffffffffffffff1681565b600382600a811015156107a357fe5b600a020181600a811015156107b457fe5b01600091509150505481565b60685481565b60008060008585600082101580156107de5750600a82105b15156107e957600080fd5b600081101580156107fa5750600a81105b151561080557600080fd5b6000809054906101000a900473ffffffffffffffffffffffffffffffffffffffff1673ffffffffffffffffffffffffffffffffffffffff16638d4e40836000604051602001526040518163ffffffff167c0100000000000000000000000000000000000000000000000000000000028152600401602060405180830381600087803b151561089257600080fd5b6102c65a03f115156108a357600080fd5b5050506040518051905015156108b857600080fd5b606486111515156108c857600080fd5b6108f33073ffffffffffffffffffffffffffffffffffffffff16316108ee338b8b610aa7565b610ce5565b945060008511151561090457600080fd5b61092a606461091c8888610cfe90919063ffffffff16565b610d3990919063ffffffff16565b935061093f8486610d5490919063ffffffff16565b92506000600260003373ffffffffffffffffffffffffffffffffffffffff1673ffffffffffffffffffffffffffffffffffffffff16815260200190815260200160002089600a8110151561098f57fe5b600a020188600a811015156109a057fe5b01819055503373ffffffffffffffffffffffffffffffffffffffff166108fc849081150290604051600060405180830381858888f1935050505015156109e557600080fd5b600160009054906101000a900473ffffffffffffffffffffffffffffffffffffffff1673ffffffffffffffffffffffffffffffffffffffff166108fc859081150290604051600060405180830381858888f193505050501515610a4757600080fd5b3373ffffffffffffffffffffffffffffffffffffffff167faecbaaa1535c52061435fdbf9b86004b94dead30c501cc73f8972621f42fd26a8486604051808381526020018281526020019250505060405180910390a25050505050505050565b60008060008060009054906101000a900473ffffffffffffffffffffffffffffffffffffffff1673ffffffffffffffffffffffffffffffffffffffff1663d5a8487f86866000604051604001526040518363ffffffff167c010000000000000000000000000000000000000000000000000000000002815260040180838152602001828152602001925050506040805180830381600087803b1515610b4b57600080fd5b6102c65a03f11515610b5c57600080fd5b5050506040518051906020018051905091509150610c3a600386600a81101515610b8257fe5b600a020185600a81101515610b9357fe5b0154610c2c83610c1e86610c10606854600260008f73ffffffffffffffffffffffffffffffffffffffff1673ffffffffffffffffffffffffffffffffffffffff1681526020019081526020016000208d600a81101515610bef57fe5b600a02018c600a81101515610c0057fe5b0154610cfe90919063ffffffff16565b610cfe90919063ffffffff16565b610d3990919063ffffffff16565b610d3990919063ffffffff16565b925050509392505050565b600160009054906101000a900473ffffffffffffffffffffffffffffffffffffffff1681565b6000606954905090565b635a77977881565b6000606760008473ffffffffffffffffffffffffffffffffffffffff1673ffffffffffffffffffffffffffffffffffffffff16815260200190815260200160002054905092915050565b6000808284019050838110151515610cdb57fe5b8091505092915050565b6000818310610cf45781610cf6565b825b905092915050565b6000806000841415610d135760009150610d32565b8284029050828482811515610d2457fe5b04141515610d2e57fe5b8091505b5092915050565b6000808284811515610d4757fe5b0490508091505092915050565b6000828211151515610d6257fe5b8183039050929150505600a165627a7a7230582005e5a7879f12ad6bd3e4ab0208c4cc81f1496b15a79e5e0230916446d83916cf0029",
  "source": "pragma solidity 0.4.18;\n\nimport '../Squares.sol';\nimport './MockKnowsTime.sol';\n\ncontract MockedTimeSquares is Squares, MockKnowsTime {\n    function MockedTimeSquares(IScoreOracle _oracle, address _developer) Squares(_oracle, _developer) public {}\n}\n",
  "sourcePath": "/home/moody/projects/ethersquares-contracts/contracts/mocks/MockedTimeSquares.sol",
  "compiler": {
    "name": "solc",
    "version": "0.4.18+commit.9cf6e910.Emscripten.clang"
  },
  "schemaVersion": "1.0.1",
  "updatedAt": "2018-01-18T03:35:22.125Z"
}