{
  "contractName": "MockKnowsVoterStakes",
  "abi": [
    {
      "constant": true,
      "inputs": [
        {
          "name": "",
          "type": "address"
        }
      ],
      "name": "stakes",
      "outputs": [
        {
          "name": "",
          "type": "uint256"
        }
      ],
      "payable": false,
      "stateMutability": "view",
      "type": "function"
    },
    {
      "constant": true,
      "inputs": [
        {
          "name": "voter",
          "type": "address"
        },
        {
          "name": "asOfBlock",
          "type": "uint256"
        }
      ],
      "name": "getVoterStakes",
      "outputs": [
        {
          "name": "",
          "type": "uint256"
        }
      ],
      "payable": false,
      "stateMutability": "view",
      "type": "function"
    },
    {
      "inputs": [
        {
          "name": "_stakers",
          "type": "address[]"
        },
        {
          "name": "_stakes",
          "type": "uint256[]"
        }
      ],
      "payable": false,
      "stateMutability": "nonpayable",
      "type": "constructor"
    }
  ],
  "bytecode": "0x6060604052341561000f57600080fd5b6040516102653803806102658339810160405280805182019190602001805182019190505060008151835114151561004657600080fd5b600090505b82518110156100d257818181518110151561006257fe5b90602001906020020151600080858481518110151561007d57fe5b9060200190602002015173ffffffffffffffffffffffffffffffffffffffff1673ffffffffffffffffffffffffffffffffffffffff16815260200190815260200160002081905550808060010191505061004b565b505050610181806100e46000396000f30060606040526004361061004c576000357c0100000000000000000000000000000000000000000000000000000000900463ffffffff16806316934fc414610051578063fb4460dd1461009e575b600080fd5b341561005c57600080fd5b610088600480803573ffffffffffffffffffffffffffffffffffffffff169060200190919050506100f4565b6040518082815260200191505060405180910390f35b34156100a957600080fd5b6100de600480803573ffffffffffffffffffffffffffffffffffffffff1690602001909190803590602001909190505061010c565b6040518082815260200191505060405180910390f35b60006020528060005260406000206000915090505481565b60008060008473ffffffffffffffffffffffffffffffffffffffff1673ffffffffffffffffffffffffffffffffffffffff168152602001908152602001600020549050929150505600a165627a7a7230582066425bdf29c4191b2f7b43d024e220e982b512ceebfe3e5aa01ea59832f81e250029",
  "source": "pragma solidity 0.4.18;\n\nimport '../interfaces/IKnowsVoterStakes.sol';\n\ncontract MockKnowsVoterStakes is IKnowsVoterStakes {\n    mapping(address => uint) public stakes;\n\n    function MockKnowsVoterStakes(address[] _stakers, uint[] _stakes) public {\n        require(_stakers.length == _stakes.length);\n\n        for (uint i = 0; i < _stakers.length; i++) {\n            stakes[_stakers[i]] = _stakes[i];\n        }\n    }\n\n    function getVoterStakes(address voter, uint asOfBlock) public view returns (uint) {\n        return stakes[voter];\n    }\n}\n",
  "sourcePath": "/home/moody/projects/ethersquares-contracts/contracts/mocks/MockKnowsVoterStakes.sol",
  "compiler": {
    "name": "solc",
    "version": "0.4.18+commit.9cf6e910.Emscripten.clang"
  },
  "schemaVersion": "1.0.1",
  "updatedAt": "2018-01-18T03:35:22.125Z"
}