{
  "contractName": "MockedTimeBoxes",
  "abi": [
    {
      "constant": true,
      "inputs": [],
      "name": "FEE_PERCENTAGE",
      "outputs": [
        {
          "name": "",
          "type": "uint256"
        }
      ],
      "payable": false,
      "stateMutability": "view",
      "type": "function"
    },
    {
      "constant": true,
      "inputs": [],
      "name": "time",
      "outputs": [
        {
          "name": "",
          "type": "uint256"
        }
      ],
      "payable": false,
      "stateMutability": "view",
      "type": "function"
    },
    {
      "constant": false,
      "inputs": [
        {
          "name": "_time",
          "type": "uint256"
        }
      ],
      "name": "setTime",
      "outputs": [],
      "payable": false,
      "stateMutability": "nonpayable",
      "type": "function"
    },
    {
      "constant": true,
      "inputs": [
        {
          "name": "",
          "type": "address"
        },
        {
          "name": "",
          "type": "uint256"
        },
        {
          "name": "",
          "type": "uint256"
        }
      ],
      "name": "boxStakesByUser",
      "outputs": [
        {
          "name": "",
          "type": "uint256"
        }
      ],
      "payable": false,
      "stateMutability": "view",
      "type": "function"
    },
    {
      "constant": false,
      "inputs": [
        {
          "name": "home",
          "type": "uint256"
        },
        {
          "name": "away",
          "type": "uint256"
        }
      ],
      "name": "bet",
      "outputs": [],
      "payable": true,
      "stateMutability": "payable",
      "type": "function"
    },
    {
      "constant": false,
      "inputs": [
        {
          "name": "winner",
          "type": "address"
        },
        {
          "name": "home",
          "type": "uint256"
        },
        {
          "name": "away",
          "type": "uint256"
        }
      ],
      "name": "sendWinningsTo",
      "outputs": [],
      "payable": false,
      "stateMutability": "nonpayable",
      "type": "function"
    },
    {
      "constant": true,
      "inputs": [],
      "name": "owner",
      "outputs": [
        {
          "name": "",
          "type": "address"
        }
      ],
      "payable": false,
      "stateMutability": "view",
      "type": "function"
    },
    {
      "constant": true,
      "inputs": [
        {
          "name": "",
          "type": "uint256"
        },
        {
          "name": "",
          "type": "uint256"
        }
      ],
      "name": "totalBoxStakes",
      "outputs": [
        {
          "name": "",
          "type": "uint256"
        }
      ],
      "payable": false,
      "stateMutability": "view",
      "type": "function"
    },
    {
      "constant": true,
      "inputs": [],
      "name": "payee",
      "outputs": [
        {
          "name": "",
          "type": "address"
        }
      ],
      "payable": false,
      "stateMutability": "view",
      "type": "function"
    },
    {
      "constant": true,
      "inputs": [],
      "name": "NUM_QUARTERS",
      "outputs": [
        {
          "name": "",
          "type": "uint256"
        }
      ],
      "payable": false,
      "stateMutability": "view",
      "type": "function"
    },
    {
      "constant": true,
      "inputs": [],
      "name": "totalStakes",
      "outputs": [
        {
          "name": "",
          "type": "uint256"
        }
      ],
      "payable": false,
      "stateMutability": "view",
      "type": "function"
    },
    {
      "constant": true,
      "inputs": [
        {
          "name": "",
          "type": "uint256"
        },
        {
          "name": "",
          "type": "uint256"
        }
      ],
      "name": "boxQuartersWon",
      "outputs": [
        {
          "name": "",
          "type": "uint256"
        }
      ],
      "payable": false,
      "stateMutability": "view",
      "type": "function"
    },
    {
      "constant": true,
      "inputs": [],
      "name": "currentTime",
      "outputs": [
        {
          "name": "",
          "type": "uint256"
        }
      ],
      "payable": false,
      "stateMutability": "view",
      "type": "function"
    },
    {
      "constant": true,
      "inputs": [],
      "name": "GAME_START_TIME",
      "outputs": [
        {
          "name": "",
          "type": "uint256"
        }
      ],
      "payable": false,
      "stateMutability": "view",
      "type": "function"
    },
    {
      "constant": false,
      "inputs": [
        {
          "name": "home",
          "type": "uint256"
        },
        {
          "name": "away",
          "type": "uint256"
        }
      ],
      "name": "collectWinnings",
      "outputs": [],
      "payable": false,
      "stateMutability": "nonpayable",
      "type": "function"
    },
    {
      "constant": false,
      "inputs": [
        {
          "name": "newOwner",
          "type": "address"
        }
      ],
      "name": "transferOwnership",
      "outputs": [],
      "payable": false,
      "stateMutability": "nonpayable",
      "type": "function"
    },
    {
      "constant": false,
      "inputs": [
        {
          "name": "home",
          "type": "uint256"
        },
        {
          "name": "away",
          "type": "uint256"
        }
      ],
      "name": "reportWinner",
      "outputs": [],
      "payable": false,
      "stateMutability": "nonpayable",
      "type": "function"
    },
    {
      "inputs": [
        {
          "name": "_payee",
          "type": "address"
        }
      ],
      "payable": false,
      "stateMutability": "nonpayable",
      "type": "constructor"
    },
    {
      "anonymous": false,
      "inputs": [
        {
          "indexed": true,
          "name": "better",
          "type": "address"
        },
        {
          "indexed": true,
          "name": "home",
          "type": "uint256"
        },
        {
          "indexed": true,
          "name": "away",
          "type": "uint256"
        },
        {
          "indexed": false,
          "name": "stake",
          "type": "uint256"
        },
        {
          "indexed": false,
          "name": "fee",
          "type": "uint256"
        }
      ],
      "name": "LogBet",
      "type": "event"
    },
    {
      "anonymous": false,
      "inputs": [
        {
          "indexed": true,
          "name": "winner",
          "type": "address"
        },
        {
          "indexed": false,
          "name": "amount",
          "type": "uint256"
        }
      ],
      "name": "LogPayout",
      "type": "event"
    },
    {
      "anonymous": false,
      "inputs": [
        {
          "indexed": true,
          "name": "previousOwner",
          "type": "address"
        },
        {
          "indexed": true,
          "name": "newOwner",
          "type": "address"
        }
      ],
      "name": "OwnershipTransferred",
      "type": "event"
    }
  ],
  "bytecode": "0x6060604052600060cc55341561001457600080fd5b604051602080610ec18339810160405280805190602001909190505080336000806101000a81548173ffffffffffffffffffffffffffffffffffffffff021916908373ffffffffffffffffffffffffffffffffffffffff16021790555080600160006101000a81548173ffffffffffffffffffffffffffffffffffffffff021916908373ffffffffffffffffffffffffffffffffffffffff1602179055505050610dfe806100c36000396000f3006060604052600436106100f0576000357c0100000000000000000000000000000000000000000000000000000000900463ffffffff1680620b46f8146100f557806316ada5471461011e5780633beb26c4146101475780634ee831c41461016a5780636ffcc719146101c957806385be8815146101ea5780638da5cb5b146102355780639ef40d781461028a578063ae90b213146102ca578063b1f4e44b1461031f578063bf9befb114610348578063cb658d5c14610371578063d18e81b3146103b1578063ebb85502146103da578063eea8252414610403578063f2fde38b1461042f578063f776b44c14610468575b600080fd5b341561010057600080fd5b610108610494565b6040518082815260200191505060405180910390f35b341561012957600080fd5b610131610499565b6040518082815260200191505060405180910390f35b341561015257600080fd5b610168600480803590602001909190505061049f565b005b341561017557600080fd5b6101b3600480803573ffffffffffffffffffffffffffffffffffffffff169060200190919080359060200190919080359060200190919050506104a9565b6040518082815260200191505060405180910390f35b6101e860048080359060200190919080359060200190919050506104e2565b005b34156101f557600080fd5b610233600480803573ffffffffffffffffffffffffffffffffffffffff1690602001909190803590602001909190803590602001909190505061078e565b005b341561024057600080fd5b6102486109dd565b604051808273ffffffffffffffffffffffffffffffffffffffff1673ffffffffffffffffffffffffffffffffffffffff16815260200191505060405180910390f35b341561029557600080fd5b6102b46004808035906020019091908035906020019091905050610a02565b6040518082815260200191505060405180910390f35b34156102d557600080fd5b6102dd610a2e565b604051808273ffffffffffffffffffffffffffffffffffffffff1673ffffffffffffffffffffffffffffffffffffffff16815260200191505060405180910390f35b341561032a57600080fd5b610332610a54565b6040518082815260200191505060405180910390f35b341561035357600080fd5b61035b610a59565b6040518082815260200191505060405180910390f35b341561037c57600080fd5b61039b6004808035906020019091908035906020019091905050610a5f565b6040518082815260200191505060405180910390f35b34156103bc57600080fd5b6103c4610a8b565b6040518082815260200191505060405180910390f35b34156103e557600080fd5b6103ed610a95565b6040518082815260200191505060405180910390f35b341561040e57600080fd5b61042d6004808035906020019091908035906020019091905050610a9d565b005b341561043a57600080fd5b610466600480803573ffffffffffffffffffffffffffffffffffffffff16906020019091905050610ae8565b005b341561047357600080fd5b6104926004808035906020019091908035906020019091905050610c3d565b005b600581565b60cd5481565b8060cd8190555050565b600260205282600052604060002082600a811015156104c457fe5b600a020181600a811015156104d557fe5b0160009250925050505481565b6000808383600082101580156104f85750600a82105b151561050357600080fd5b600081101580156105145750600a81105b151561051f57600080fd5b60003411151561052e57600080fd5b635a76eeb861053b610a8b565b10151561054757600080fd5b61056e6064610560600534610d4590919063ffffffff16565b610d8090919063ffffffff16565b9350600160009054906101000a900473ffffffffffffffffffffffffffffffffffffffff1673ffffffffffffffffffffffffffffffffffffffff166108fc859081150290604051600060405180830381858888f1935050505015156105d257600080fd5b6105e58434610d9b90919063ffffffff16565b92506105fc83606754610db490919063ffffffff16565b60678190555061067383600260003373ffffffffffffffffffffffffffffffffffffffff1673ffffffffffffffffffffffffffffffffffffffff16815260200190815260200160002088600a8110151561065257fe5b600a020187600a8110151561066357fe5b0154610db490919063ffffffff16565b600260003373ffffffffffffffffffffffffffffffffffffffff1673ffffffffffffffffffffffffffffffffffffffff16815260200190815260200160002087600a811015156106bf57fe5b600a020186600a811015156106d057fe5b018190555061070983600388600a811015156106e857fe5b600a020187600a811015156106f957fe5b0154610db490919063ffffffff16565b600387600a8110151561071857fe5b600a020186600a8110151561072957fe5b018190555084863373ffffffffffffffffffffffffffffffffffffffff167f932e7d9dfe5d3d467e9a59c299458fa146ef11f9d3093857e94ac71aef75e1068688604051808381526020018281526020019250505060405180910390a4505050505050565b60008060008484600082101580156107a65750600a82105b15156107b157600080fd5b600081101580156107c25750600a81105b15156107cd57600080fd5b600460cc541415156107de57600080fd5b600260008973ffffffffffffffffffffffffffffffffffffffff1673ffffffffffffffffffffffffffffffffffffffff16815260200190815260200160002087600a8110151561082a57fe5b600a020186600a8110151561083b57fe5b01549450600387600a8110151561084e57fe5b600a020186600a8110151561085f57fe5b015493506108d0846108c260046108b460688c600a8110151561087e57fe5b600a02018b600a8110151561088f57fe5b01546108a66067548c610d4590919063ffffffff16565b610d4590919063ffffffff16565b610d8090919063ffffffff16565b610d8090919063ffffffff16565b92506000831115156108e157600080fd5b6000600260008a73ffffffffffffffffffffffffffffffffffffffff1673ffffffffffffffffffffffffffffffffffffffff16815260200190815260200160002088600a8110151561092f57fe5b600a020187600a8110151561094057fe5b01819055508773ffffffffffffffffffffffffffffffffffffffff166108fc849081150290604051600060405180830381858888f19350505050151561098557600080fd5b8773ffffffffffffffffffffffffffffffffffffffff167f7d6963073a93103d7a336ea21c7f029ad757c9ef4c0c6ad0ff86c689480e0ed8846040518082815260200191505060405180910390a25050505050505050565b6000809054906101000a900473ffffffffffffffffffffffffffffffffffffffff1681565b600382600a81101515610a1157fe5b600a020181600a81101515610a2257fe5b01600091509150505481565b600160009054906101000a900473ffffffffffffffffffffffffffffffffffffffff1681565b600481565b60675481565b606882600a81101515610a6e57fe5b600a020181600a81101515610a7f57fe5b01600091509150505481565b600060cd54905090565b635a76eeb881565b818160008210158015610ab05750600a82105b1515610abb57600080fd5b60008110158015610acc5750600a81105b1515610ad757600080fd5b610ae233858561078e565b50505050565b6000809054906101000a900473ffffffffffffffffffffffffffffffffffffffff1673ffffffffffffffffffffffffffffffffffffffff163373ffffffffffffffffffffffffffffffffffffffff16141515610b4357600080fd5b600073ffffffffffffffffffffffffffffffffffffffff168173ffffffffffffffffffffffffffffffffffffffff1614151515610b7f57600080fd5b8073ffffffffffffffffffffffffffffffffffffffff166000809054906101000a900473ffffffffffffffffffffffffffffffffffffffff1673ffffffffffffffffffffffffffffffffffffffff167f8be0079c531659141344cd1fd0a4f28419497f9722a3daafe3b4186f6b6457e060405160405180910390a3806000806101000a81548173ffffffffffffffffffffffffffffffffffffffff021916908373ffffffffffffffffffffffffffffffffffffffff16021790555050565b6000809054906101000a900473ffffffffffffffffffffffffffffffffffffffff1673ffffffffffffffffffffffffffffffffffffffff163373ffffffffffffffffffffffffffffffffffffffff16141515610c9857600080fd5b818160008210158015610cab5750600a82105b1515610cb657600080fd5b60008110158015610cc75750600a81105b1515610cd257600080fd5b600460cc54101515610ce357600080fd5b635a76eeb8610cf0610a8b565b111515610cfc57600080fd5b60cc60008154809291906001019190505550606884600a81101515610d1d57fe5b600a020183600a81101515610d2e57fe5b016000815480929190600101919050555050505050565b6000806000841415610d5a5760009150610d79565b8284029050828482811515610d6b57fe5b04141515610d7557fe5b8091505b5092915050565b6000808284811515610d8e57fe5b0490508091505092915050565b6000828211151515610da957fe5b818303905092915050565b6000808284019050838110151515610dc857fe5b80915050929150505600a165627a7a7230582045e2ddb2fb17d50b55a3aaf57222c6bbdf82b4217094187dae4d10333f0aeb420029",
  "source": "pragma solidity 0.4.18;\n\nimport './Boxes.sol';\n\ncontract MockedTimeBoxes is Boxes {\n    function MockedTimeBoxes(address _payee) Boxes(_payee) public {}\n\n    uint public time;\n\n    function currentTime() view public returns (uint) {\n        return time;\n    }\n\n    function setTime(uint _time) public {\n        time = _time;\n    }\n}\n",
  "sourcePath": "/Users/moodysalem/Projects/contracts/contracts/MockedTimeBoxes.sol",
  "compiler": {
    "name": "solc",
    "version": "0.4.18+commit.9cf6e910.Emscripten.clang"
  },
  "schemaVersion": "1.0.1",
  "updatedAt": "2018-01-13T17:01:00.361Z"
}