{
  "contractName": "MockedTimeBoxes",
  "abi": [
    {
      "constant": true,
      "inputs": [],
      "name": "FEE_PERCENTAGE",
      "outputs": [
        {
          "name": "",
          "type": "uint256"
        }
      ],
      "payable": false,
      "stateMutability": "view",
      "type": "function"
    },
    {
      "constant": true,
      "inputs": [],
      "name": "time",
      "outputs": [
        {
          "name": "",
          "type": "uint256"
        }
      ],
      "payable": false,
      "stateMutability": "view",
      "type": "function"
    },
    {
      "constant": false,
      "inputs": [
        {
          "name": "_time",
          "type": "uint256"
        }
      ],
      "name": "setTime",
      "outputs": [],
      "payable": false,
      "stateMutability": "nonpayable",
      "type": "function"
    },
    {
      "constant": true,
      "inputs": [
        {
          "name": "",
          "type": "address"
        },
        {
          "name": "",
          "type": "uint256"
        },
        {
          "name": "",
          "type": "uint256"
        }
      ],
      "name": "boxStakesByUser",
      "outputs": [
        {
          "name": "",
          "type": "uint256"
        }
      ],
      "payable": false,
      "stateMutability": "view",
      "type": "function"
    },
    {
      "constant": false,
      "inputs": [
        {
          "name": "home",
          "type": "uint256"
        },
        {
          "name": "away",
          "type": "uint256"
        }
      ],
      "name": "bet",
      "outputs": [],
      "payable": true,
      "stateMutability": "payable",
      "type": "function"
    },
    {
      "constant": false,
      "inputs": [
        {
          "name": "winner",
          "type": "address"
        },
        {
          "name": "home",
          "type": "uint256"
        },
        {
          "name": "away",
          "type": "uint256"
        }
      ],
      "name": "sendWinningsTo",
      "outputs": [],
      "payable": false,
      "stateMutability": "nonpayable",
      "type": "function"
    },
    {
      "constant": true,
      "inputs": [],
      "name": "owner",
      "outputs": [
        {
          "name": "",
          "type": "address"
        }
      ],
      "payable": false,
      "stateMutability": "view",
      "type": "function"
    },
    {
      "constant": true,
      "inputs": [
        {
          "name": "",
          "type": "uint256"
        },
        {
          "name": "",
          "type": "uint256"
        }
      ],
      "name": "totalBoxStakes",
      "outputs": [
        {
          "name": "",
          "type": "uint256"
        }
      ],
      "payable": false,
      "stateMutability": "view",
      "type": "function"
    },
    {
      "constant": true,
      "inputs": [],
      "name": "payee",
      "outputs": [
        {
          "name": "",
          "type": "address"
        }
      ],
      "payable": false,
      "stateMutability": "view",
      "type": "function"
    },
    {
      "constant": true,
      "inputs": [],
      "name": "NUM_QUARTERS",
      "outputs": [
        {
          "name": "",
          "type": "uint8"
        }
      ],
      "payable": false,
      "stateMutability": "view",
      "type": "function"
    },
    {
      "constant": true,
      "inputs": [],
      "name": "totalStakes",
      "outputs": [
        {
          "name": "",
          "type": "uint256"
        }
      ],
      "payable": false,
      "stateMutability": "view",
      "type": "function"
    },
    {
      "constant": true,
      "inputs": [
        {
          "name": "",
          "type": "uint256"
        },
        {
          "name": "",
          "type": "uint256"
        }
      ],
      "name": "boxQuartersWon",
      "outputs": [
        {
          "name": "",
          "type": "uint8"
        }
      ],
      "payable": false,
      "stateMutability": "view",
      "type": "function"
    },
    {
      "constant": true,
      "inputs": [],
      "name": "currentTime",
      "outputs": [
        {
          "name": "",
          "type": "uint256"
        }
      ],
      "payable": false,
      "stateMutability": "view",
      "type": "function"
    },
    {
      "constant": true,
      "inputs": [],
      "name": "GAME_START_TIME",
      "outputs": [
        {
          "name": "",
          "type": "uint256"
        }
      ],
      "payable": false,
      "stateMutability": "view",
      "type": "function"
    },
    {
      "constant": false,
      "inputs": [
        {
          "name": "home",
          "type": "uint256"
        },
        {
          "name": "away",
          "type": "uint256"
        }
      ],
      "name": "collectWinnings",
      "outputs": [],
      "payable": false,
      "stateMutability": "nonpayable",
      "type": "function"
    },
    {
      "constant": false,
      "inputs": [
        {
          "name": "newOwner",
          "type": "address"
        }
      ],
      "name": "transferOwnership",
      "outputs": [],
      "payable": false,
      "stateMutability": "nonpayable",
      "type": "function"
    },
    {
      "constant": false,
      "inputs": [
        {
          "name": "home",
          "type": "uint256"
        },
        {
          "name": "away",
          "type": "uint256"
        }
      ],
      "name": "reportWinner",
      "outputs": [],
      "payable": false,
      "stateMutability": "nonpayable",
      "type": "function"
    },
    {
      "inputs": [
        {
          "name": "_payee",
          "type": "address"
        }
      ],
      "payable": false,
      "stateMutability": "nonpayable",
      "type": "constructor"
    },
    {
      "anonymous": false,
      "inputs": [
        {
          "indexed": true,
          "name": "better",
          "type": "address"
        },
        {
          "indexed": true,
          "name": "home",
          "type": "uint256"
        },
        {
          "indexed": true,
          "name": "away",
          "type": "uint256"
        },
        {
          "indexed": false,
          "name": "stake",
          "type": "uint256"
        },
        {
          "indexed": false,
          "name": "fee",
          "type": "uint256"
        }
      ],
      "name": "LogBet",
      "type": "event"
    },
    {
      "anonymous": false,
      "inputs": [
        {
          "indexed": true,
          "name": "winner",
          "type": "address"
        },
        {
          "indexed": false,
          "name": "winnings",
          "type": "uint256"
        }
      ],
      "name": "LogPayout",
      "type": "event"
    },
    {
      "anonymous": false,
      "inputs": [
        {
          "indexed": true,
          "name": "previousOwner",
          "type": "address"
        },
        {
          "indexed": true,
          "name": "newOwner",
          "type": "address"
        }
      ],
      "name": "OwnershipTransferred",
      "type": "event"
    }
  ],
  "bytecode": "0x60606040526000607260006101000a81548160ff021916908360ff160217905550341561002b57600080fd5b604051602080610f738339810160405280805190602001909190505080336000806101000a81548173ffffffffffffffffffffffffffffffffffffffff021916908373ffffffffffffffffffffffffffffffffffffffff16021790555080600160006101000a81548173ffffffffffffffffffffffffffffffffffffffff021916908373ffffffffffffffffffffffffffffffffffffffff1602179055505050610e99806100da6000396000f3006060604052600436106100f0576000357c0100000000000000000000000000000000000000000000000000000000900463ffffffff1680620b46f8146100f557806316ada5471461011e5780633beb26c4146101475780634ee831c41461016a5780636ffcc719146101c957806385be8815146101ea5780638da5cb5b146102355780639ef40d781461028a578063ae90b213146102ca578063b1f4e44b1461031f578063bf9befb11461034e578063cb658d5c14610377578063d18e81b3146103bd578063ebb85502146103e6578063eea825241461040f578063f2fde38b1461043b578063f776b44c14610474575b600080fd5b341561010057600080fd5b6101086104a0565b6040518082815260200191505060405180910390f35b341561012957600080fd5b6101316104a5565b6040518082815260200191505060405180910390f35b341561015257600080fd5b61016860048080359060200190919050506104ab565b005b341561017557600080fd5b6101b3600480803573ffffffffffffffffffffffffffffffffffffffff169060200190919080359060200190919080359060200190919050506104b5565b6040518082815260200191505060405180910390f35b6101e860048080359060200190919080359060200190919050506104ee565b005b34156101f557600080fd5b610233600480803573ffffffffffffffffffffffffffffffffffffffff1690602001909190803590602001909190803590602001909190505061079a565b005b341561024057600080fd5b610248610a13565b604051808273ffffffffffffffffffffffffffffffffffffffff1673ffffffffffffffffffffffffffffffffffffffff16815260200191505060405180910390f35b341561029557600080fd5b6102b46004808035906020019091908035906020019091905050610a38565b6040518082815260200191505060405180910390f35b34156102d557600080fd5b6102dd610a64565b604051808273ffffffffffffffffffffffffffffffffffffffff1673ffffffffffffffffffffffffffffffffffffffff16815260200191505060405180910390f35b341561032a57600080fd5b610332610a8a565b604051808260ff1660ff16815260200191505060405180910390f35b341561035957600080fd5b610361610a8f565b6040518082815260200191505060405180910390f35b341561038257600080fd5b6103a16004808035906020019091908035906020019091905050610a95565b604051808260ff1660ff16815260200191505060405180910390f35b34156103c857600080fd5b6103d0610acf565b6040518082815260200191505060405180910390f35b34156103f157600080fd5b6103f9610ad9565b6040518082815260200191505060405180910390f35b341561041a57600080fd5b6104396004808035906020019091908035906020019091905050610ae1565b005b341561044657600080fd5b610472600480803573ffffffffffffffffffffffffffffffffffffffff16906020019091905050610b2c565b005b341561047f57600080fd5b61049e6004808035906020019091908035906020019091905050610c81565b005b600581565b60735481565b8060738190555050565b600260205282600052604060002082600a811015156104d057fe5b600a020181600a811015156104e157fe5b0160009250925050505481565b6000808383600082101580156105045750600a82105b151561050f57600080fd5b600081101580156105205750600a81105b151561052b57600080fd5b60003411151561053a57600080fd5b635a76eeb8610547610acf565b10151561055357600080fd5b61057a606461056c600534610de090919063ffffffff16565b610e1b90919063ffffffff16565b9350600160009054906101000a900473ffffffffffffffffffffffffffffffffffffffff1673ffffffffffffffffffffffffffffffffffffffff166108fc859081150290604051600060405180830381858888f1935050505015156105de57600080fd5b6105f18434610e3690919063ffffffff16565b925061060883606754610e4f90919063ffffffff16565b60678190555061067f83600260003373ffffffffffffffffffffffffffffffffffffffff1673ffffffffffffffffffffffffffffffffffffffff16815260200190815260200160002088600a8110151561065e57fe5b600a020187600a8110151561066f57fe5b0154610e4f90919063ffffffff16565b600260003373ffffffffffffffffffffffffffffffffffffffff1673ffffffffffffffffffffffffffffffffffffffff16815260200190815260200160002087600a811015156106cb57fe5b600a020186600a811015156106dc57fe5b018190555061071583600388600a811015156106f457fe5b600a020187600a8110151561070557fe5b0154610e4f90919063ffffffff16565b600387600a8110151561072457fe5b600a020186600a8110151561073557fe5b018190555084863373ffffffffffffffffffffffffffffffffffffffff167f932e7d9dfe5d3d467e9a59c299458fa146ef11f9d3093857e94ac71aef75e1068688604051808381526020018281526020019250505060405180910390a4505050505050565b60008060008484600082101580156107b25750600a82105b15156107bd57600080fd5b600081101580156107ce5750600a81105b15156107d957600080fd5b600460ff16607260009054906101000a900460ff1660ff161415156107fd57600080fd5b600260008973ffffffffffffffffffffffffffffffffffffffff1673ffffffffffffffffffffffffffffffffffffffff16815260200190815260200160002087600a8110151561084957fe5b600a020186600a8110151561085a57fe5b01549450600387600a8110151561086d57fe5b600a020186600a8110151561087e57fe5b01549350610906846108f8600460ff166108ea60688c600a811015156108a057fe5b018b600a811015156108ae57fe5b602091828204019190069054906101000a900460ff1660ff166108dc6067548c610de090919063ffffffff16565b610de090919063ffffffff16565b610e1b90919063ffffffff16565b610e1b90919063ffffffff16565b925060008311151561091757600080fd5b6000600260008a73ffffffffffffffffffffffffffffffffffffffff1673ffffffffffffffffffffffffffffffffffffffff16815260200190815260200160002088600a8110151561096557fe5b600a020187600a8110151561097657fe5b01819055508773ffffffffffffffffffffffffffffffffffffffff166108fc849081150290604051600060405180830381858888f1935050505015156109bb57600080fd5b8773ffffffffffffffffffffffffffffffffffffffff167f7d6963073a93103d7a336ea21c7f029ad757c9ef4c0c6ad0ff86c689480e0ed8846040518082815260200191505060405180910390a25050505050505050565b6000809054906101000a900473ffffffffffffffffffffffffffffffffffffffff1681565b600382600a81101515610a4757fe5b600a020181600a81101515610a5857fe5b01600091509150505481565b600160009054906101000a900473ffffffffffffffffffffffffffffffffffffffff1681565b600481565b60675481565b606882600a81101515610aa457fe5b0181600a81101515610ab257fe5b60209182820401919006915091509054906101000a900460ff1681565b6000607354905090565b635a76eeb881565b818160008210158015610af45750600a82105b1515610aff57600080fd5b60008110158015610b105750600a81105b1515610b1b57600080fd5b610b2633858561079a565b50505050565b6000809054906101000a900473ffffffffffffffffffffffffffffffffffffffff1673ffffffffffffffffffffffffffffffffffffffff163373ffffffffffffffffffffffffffffffffffffffff16141515610b8757600080fd5b600073ffffffffffffffffffffffffffffffffffffffff168173ffffffffffffffffffffffffffffffffffffffff1614151515610bc357600080fd5b8073ffffffffffffffffffffffffffffffffffffffff166000809054906101000a900473ffffffffffffffffffffffffffffffffffffffff1673ffffffffffffffffffffffffffffffffffffffff167f8be0079c531659141344cd1fd0a4f28419497f9722a3daafe3b4186f6b6457e060405160405180910390a3806000806101000a81548173ffffffffffffffffffffffffffffffffffffffff021916908373ffffffffffffffffffffffffffffffffffffffff16021790555050565b6000809054906101000a900473ffffffffffffffffffffffffffffffffffffffff1673ffffffffffffffffffffffffffffffffffffffff163373ffffffffffffffffffffffffffffffffffffffff16141515610cdc57600080fd5b818160008210158015610cef5750600a82105b1515610cfa57600080fd5b60008110158015610d0b5750600a81105b1515610d1657600080fd5b600460ff16607260009054906101000a900460ff1660ff16101515610d3a57600080fd5b635a76eeb8610d47610acf565b111515610d5357600080fd5b6072600081819054906101000a900460ff168092919060010191906101000a81548160ff021916908360ff16021790555050606884600a81101515610d9457fe5b0183600a81101515610da257fe5b6020918282040191900681819054906101000a900460ff168092919060010191906101000a81548160ff021916908360ff1602179055505050505050565b6000806000841415610df55760009150610e14565b8284029050828482811515610e0657fe5b04141515610e1057fe5b8091505b5092915050565b6000808284811515610e2957fe5b0490508091505092915050565b6000828211151515610e4457fe5b818303905092915050565b6000808284019050838110151515610e6357fe5b80915050929150505600a165627a7a7230582047cf2166ebdb76532ced6181fc6ecc7b35713d507d55c3155014252dedf3f26e0029",
  "source": "pragma solidity 0.4.18;\n\nimport './Boxes.sol';\n\ncontract MockedTimeBoxes is Boxes {\n    function MockedTimeBoxes(address _payee) Boxes(_payee) public {}\n\n    uint public time;\n\n    function currentTime() view public returns (uint) {\n        return time;\n    }\n\n    function setTime(uint _time) public {\n        time = _time;\n    }\n}\n",
  "sourcePath": "/Users/moodysalem/Projects/contracts/contracts/MockedTimeBoxes.sol",
  "compiler": {
    "name": "solc",
    "version": "0.4.18+commit.9cf6e910.Emscripten.clang"
  },
  "schemaVersion": "1.0.1",
  "updatedAt": "2018-01-13T17:29:03.097Z"
}