{
  "contractName": "OwnedScoreOracle",
  "abi": [
    {
      "constant": true,
      "inputs": [],
      "name": "winsReported",
      "outputs": [
        {
          "name": "",
          "type": "uint256"
        }
      ],
      "payable": false,
      "stateMutability": "view",
      "type": "function"
    },
    {
      "constant": true,
      "inputs": [
        {
          "name": "",
          "type": "uint256"
        },
        {
          "name": "",
          "type": "uint256"
        }
      ],
      "name": "squareWins",
      "outputs": [
        {
          "name": "",
          "type": "uint256"
        }
      ],
      "payable": false,
      "stateMutability": "view",
      "type": "function"
    },
    {
      "constant": false,
      "inputs": [],
      "name": "finalize",
      "outputs": [],
      "payable": false,
      "stateMutability": "nonpayable",
      "type": "function"
    },
    {
      "constant": false,
      "inputs": [
        {
          "name": "home",
          "type": "uint256"
        },
        {
          "name": "away",
          "type": "uint256"
        },
        {
          "name": "wins",
          "type": "uint256"
        }
      ],
      "name": "setSquareWins",
      "outputs": [],
      "payable": false,
      "stateMutability": "nonpayable",
      "type": "function"
    },
    {
      "constant": true,
      "inputs": [],
      "name": "isFinalized",
      "outputs": [
        {
          "name": "",
          "type": "bool"
        }
      ],
      "payable": false,
      "stateMutability": "view",
      "type": "function"
    },
    {
      "constant": true,
      "inputs": [],
      "name": "owner",
      "outputs": [
        {
          "name": "",
          "type": "address"
        }
      ],
      "payable": false,
      "stateMutability": "view",
      "type": "function"
    },
    {
      "constant": true,
      "inputs": [],
      "name": "finalized",
      "outputs": [
        {
          "name": "",
          "type": "bool"
        }
      ],
      "payable": false,
      "stateMutability": "view",
      "type": "function"
    },
    {
      "constant": true,
      "inputs": [],
      "name": "SCORE_REPORT_START_TIME",
      "outputs": [
        {
          "name": "",
          "type": "uint256"
        }
      ],
      "payable": false,
      "stateMutability": "view",
      "type": "function"
    },
    {
      "constant": true,
      "inputs": [],
      "name": "TOTAL_WINS",
      "outputs": [
        {
          "name": "",
          "type": "uint256"
        }
      ],
      "payable": false,
      "stateMutability": "view",
      "type": "function"
    },
    {
      "constant": true,
      "inputs": [],
      "name": "currentTime",
      "outputs": [
        {
          "name": "",
          "type": "uint256"
        }
      ],
      "payable": false,
      "stateMutability": "view",
      "type": "function"
    },
    {
      "constant": true,
      "inputs": [
        {
          "name": "home",
          "type": "uint256"
        },
        {
          "name": "away",
          "type": "uint256"
        }
      ],
      "name": "getSquareWins",
      "outputs": [
        {
          "name": "numSquareWins",
          "type": "uint256"
        },
        {
          "name": "totalWins",
          "type": "uint256"
        }
      ],
      "payable": false,
      "stateMutability": "view",
      "type": "function"
    },
    {
      "constant": true,
      "inputs": [],
      "name": "GAME_START_TIME",
      "outputs": [
        {
          "name": "",
          "type": "uint256"
        }
      ],
      "payable": false,
      "stateMutability": "view",
      "type": "function"
    },
    {
      "constant": false,
      "inputs": [
        {
          "name": "newOwner",
          "type": "address"
        }
      ],
      "name": "transferOwnership",
      "outputs": [],
      "payable": false,
      "stateMutability": "nonpayable",
      "type": "function"
    },
    {
      "anonymous": false,
      "inputs": [
        {
          "indexed": false,
          "name": "home",
          "type": "uint256"
        },
        {
          "indexed": false,
          "name": "away",
          "type": "uint256"
        },
        {
          "indexed": false,
          "name": "wins",
          "type": "uint256"
        }
      ],
      "name": "LogSquareWinsUpdated",
      "type": "event"
    },
    {
      "anonymous": false,
      "inputs": [
        {
          "indexed": false,
          "name": "time",
          "type": "uint256"
        }
      ],
      "name": "LogFinalized",
      "type": "event"
    },
    {
      "anonymous": false,
      "inputs": [
        {
          "indexed": true,
          "name": "previousOwner",
          "type": "address"
        },
        {
          "indexed": true,
          "name": "newOwner",
          "type": "address"
        }
      ],
      "name": "OwnershipTransferred",
      "type": "event"
    }
  ],
  "bytecode": "0x60606040526000600155336000806101000a81548173ffffffffffffffffffffffffffffffffffffffff021916908373ffffffffffffffffffffffffffffffffffffffff1602179055506108ac806100586000396000f3006060604052600436106100c5576000357c0100000000000000000000000000000000000000000000000000000000900463ffffffff16806316b07323146100ca578063395382ee146100f35780634bb278f3146101335780636bceead7146101485780638d4e40831461017d5780638da5cb5b146101aa578063b3f05b97146101ff578063bd06e7771461022c578063cbb4512014610255578063d18e81b31461027e578063d5a8487f146102a7578063ebb85502146102ee578063f2fde38b14610317575b600080fd5b34156100d557600080fd5b6100dd610350565b6040518082815260200191505060405180910390f35b34156100fe57600080fd5b61011d6004808035906020019091908035906020019091905050610356565b6040518082815260200191505060405180910390f35b341561013e57600080fd5b610146610382565b005b341561015357600080fd5b61017b6004808035906020019091908035906020019091908035906020019091905050610465565b005b341561018857600080fd5b610190610651565b604051808215151515815260200191505060405180910390f35b34156101b557600080fd5b6101bd610668565b604051808273ffffffffffffffffffffffffffffffffffffffff1673ffffffffffffffffffffffffffffffffffffffff16815260200191505060405180910390f35b341561020a57600080fd5b61021261068d565b604051808215151515815260200191505060405180910390f35b341561023757600080fd5b61023f6106a0565b6040518082815260200191505060405180910390f35b341561026057600080fd5b6102686106ad565b6040518082815260200191505060405180910390f35b341561028957600080fd5b6102916106b2565b6040518082815260200191505060405180910390f35b34156102b257600080fd5b6102d160048080359060200190919080359060200190919050506106ba565b604051808381526020018281526020019250505060405180910390f35b34156102f957600080fd5b6103016106ec565b6040518082815260200191505060405180910390f35b341561032257600080fd5b61034e600480803573ffffffffffffffffffffffffffffffffffffffff169060200190919050506106f4565b005b60015481565b600282600a8110151561036557fe5b600a020181600a8110151561037657fe5b01600091509150505481565b6000809054906101000a900473ffffffffffffffffffffffffffffffffffffffff1673ffffffffffffffffffffffffffffffffffffffff163373ffffffffffffffffffffffffffffffffffffffff161415156103dd57600080fd5b60046001541415156103ee57600080fd5b606660009054906101000a900460ff1615151561040a57600080fd5b6001606660006101000a81548160ff0219169083151502179055507f32e459b415103ae8dc9c4203aba7b51313bb22f6088ee399170c34fad088503761044e6106b2565b6040518082815260200191505060405180910390a1565b60008060009054906101000a900473ffffffffffffffffffffffffffffffffffffffff1673ffffffffffffffffffffffffffffffffffffffff163373ffffffffffffffffffffffffffffffffffffffff161415156104c257600080fd5b8383600082101580156104d55750600a82105b15156104e057600080fd5b600081101580156104f15750600a81105b15156104fc57600080fd5b62015180635a7797780161050e6106b2565b1015151561051b57600080fd5b6004841115151561052b57600080fd5b606660009054906101000a900460ff1615151561054757600080fd5b600286600a8110151561055657fe5b600a020185600a8110151561056757fe5b01549250838311156105a55761059a610589858561084990919063ffffffff16565b60015461084990919063ffffffff16565b6001819055506105dc565b838310156105db576105d46105c3848661084990919063ffffffff16565b60015461086290919063ffffffff16565b6001819055505b5b83600287600a811015156105ec57fe5b600a020186600a811015156105fd57fe5b01819055507ff05b854fc793f12856c5502dbf67bfbf1f80b60e7f6c0a70ea322a7046cc1b2a86868660405180848152602001838152602001828152602001935050505060405180910390a1505050505050565b6000606660009054906101000a900460ff16905090565b6000809054906101000a900473ffffffffffffffffffffffffffffffffffffffff1681565b606660009054906101000a900460ff1681565b62015180635a7797780181565b600481565b600042905090565b600080600284600a811015156106cc57fe5b600a020183600a811015156106dd57fe5b01546004915091509250929050565b635a77977881565b6000809054906101000a900473ffffffffffffffffffffffffffffffffffffffff1673ffffffffffffffffffffffffffffffffffffffff163373ffffffffffffffffffffffffffffffffffffffff1614151561074f57600080fd5b600073ffffffffffffffffffffffffffffffffffffffff168173ffffffffffffffffffffffffffffffffffffffff161415151561078b57600080fd5b8073ffffffffffffffffffffffffffffffffffffffff166000809054906101000a900473ffffffffffffffffffffffffffffffffffffffff1673ffffffffffffffffffffffffffffffffffffffff167f8be0079c531659141344cd1fd0a4f28419497f9722a3daafe3b4186f6b6457e060405160405180910390a3806000806101000a81548173ffffffffffffffffffffffffffffffffffffffff021916908373ffffffffffffffffffffffffffffffffffffffff16021790555050565b600082821115151561085757fe5b818303905092915050565b600080828401905083811015151561087657fe5b80915050929150505600a165627a7a72305820def35717c0df94b714999e80a0c3780661d0ee5e5d57fb771c1f48f42b63a8190029",
  "source": "pragma solidity 0.4.18;\n\nimport 'zeppelin-solidity/contracts/ownership/Ownable.sol';\nimport 'zeppelin-solidity/contracts/math/SafeMath.sol';\nimport './KnowsSquares.sol';\nimport './KnowsTime.sol';\nimport './KnowsConstants.sol';\nimport './interfaces/IScoreOracle.sol';\n\ncontract OwnedScoreOracle is KnowsConstants, KnowsSquares, KnowsTime, Ownable, IScoreOracle {\n    using SafeMath for uint;\n\n    // score can be reported 1 day after the game\n    uint public constant SCORE_REPORT_START_TIME = GAME_START_TIME + 1 days;\n\n    // the number of quarters is the total number of wins\n    uint public constant TOTAL_WINS = 4;\n\n    // number of wins that have been reported\n    uint public winsReported = 0;\n\n    // the grid of how much each box won\n    uint[10][10] public squareWins;\n\n    // whether the score is finalized\n    bool public finalized;\n\n    event LogSquareWinsUpdated(uint home, uint away, uint wins);\n\n    function setSquareWins(uint home, uint away, uint wins) public onlyOwner isValidSquare(home, away) {\n        require(currentTime() >= SCORE_REPORT_START_TIME);\n        require(wins <= TOTAL_WINS);\n        require(!finalized);\n\n        uint currentSquareWins = squareWins[home][away];\n\n        // account the number of quarters reported\n        if (currentSquareWins > wins) {\n            winsReported = winsReported.sub(currentSquareWins.sub(wins));\n        } else if (currentSquareWins < wins) {\n            winsReported = winsReported.add(wins.sub(currentSquareWins));\n        }\n\n        // mark the number of wins in that square\n        squareWins[home][away] = wins;\n\n        LogSquareWinsUpdated(home, away, wins);\n    }\n\n    event LogFinalized(uint time);\n\n    // finalize the score after it's been reported\n    function finalize() public onlyOwner {\n        require(winsReported == TOTAL_WINS);\n        require(!finalized);\n\n        finalized = true;\n\n        LogFinalized(currentTime());\n    }\n\n    function getSquareWins(uint home, uint away) public view returns (uint numSquareWins, uint totalWins) {\n        return (squareWins[home][away], TOTAL_WINS);\n    }\n\n    function isFinalized() public view returns (bool) {\n        return finalized;\n    }\n}\n",
  "sourcePath": "/home/moody/projects/ethersquares-contracts/contracts/OwnedScoreOracle.sol",
  "compiler": {
    "name": "solc",
    "version": "0.4.18+commit.9cf6e910.Emscripten.clang"
  },
  "schemaVersion": "1.0.1",
  "updatedAt": "2018-01-18T02:12:55.539Z"
}