{
  "contractName": "Splitter",
  "abi": [
    {
      "constant": false,
      "inputs": [],
      "name": "payout",
      "outputs": [],
      "payable": false,
      "stateMutability": "nonpayable",
      "type": "function"
    },
    {
      "constant": true,
      "inputs": [
        {
          "name": "",
          "type": "uint256"
        }
      ],
      "name": "between",
      "outputs": [
        {
          "name": "",
          "type": "address"
        }
      ],
      "payable": false,
      "stateMutability": "view",
      "type": "function"
    },
    {
      "inputs": [
        {
          "name": "_between",
          "type": "address[]"
        }
      ],
      "payable": false,
      "stateMutability": "nonpayable",
      "type": "constructor"
    },
    {
      "payable": true,
      "stateMutability": "payable",
      "type": "fallback"
    }
  ],
  "bytecode": "0x606060405260008060006101000a81548160ff021916908315150217905550341561002957600080fd5b6040516103f83803806103f8833981016040528080518201919050506000815111151561005557600080fd5b806001908051906020019061006b929190610072565b505061013f565b8280548282559060005260206000209081019282156100eb579160200282015b828111156100ea5782518260006101000a81548173ffffffffffffffffffffffffffffffffffffffff021916908373ffffffffffffffffffffffffffffffffffffffff16021790555091602001919060010190610092565b5b5090506100f891906100fc565b5090565b61013c91905b8082111561013857600081816101000a81549073ffffffffffffffffffffffffffffffffffffffff021916905550600101610102565b5090565b90565b6102aa8061014e6000396000f30060606040526004361061004c576000357c0100000000000000000000000000000000000000000000000000000000900463ffffffff16806363bd1d4a1461004e578063692dd64214610063575b005b341561005957600080fd5b6100616100c6565b005b341561006e57600080fd5b610084600480803590602001909190505061023f565b604051808273ffffffffffffffffffffffffffffffffffffffff1673ffffffffffffffffffffffffffffffffffffffff16815260200191505060405180910390f35b60008060008060009054906101000a900460ff161515156100e657600080fd5b60016000806101000a81548160ff02191690831515021790555060003073ffffffffffffffffffffffffffffffffffffffff16311115610220576001805490503073ffffffffffffffffffffffffffffffffffffffff163181151561014757fe5b0492506001805490503073ffffffffffffffffffffffffffffffffffffffff163181151561017157fe5b069150600090505b60018054905081101561021f5760018181548110151561019557fe5b906000526020600020900160009054906101000a900473ffffffffffffffffffffffffffffffffffffffff1673ffffffffffffffffffffffffffffffffffffffff166108fc600083146101e95760006101eb565b835b85019081150290604051600060405180830381858888f19350505050151561021257600080fd5b8080600101915050610179565b5b60008060006101000a81548160ff021916908315150217905550505050565b60018181548110151561024e57fe5b90600052602060002090016000915054906101000a900473ffffffffffffffffffffffffffffffffffffffff16815600a165627a7a7230582070db36b9fcf9d75ab7babc519e7d8f8369842c10f1b55cebcb3521d73d2700680029",
  "source": "pragma solidity 0.4.18;\n\nimport 'zeppelin-solidity/contracts/ReentrancyGuard.sol';\n\ncontract Splitter is ReentrancyGuard {\n    // addresses to split payouts to\n    address[] public between;\n\n    function Splitter(address[] _between) public {\n        require(_between.length > 0);\n        between = _between;\n    }\n\n    modifier whenHasBalance {\n        if (this.balance > 0) {\n            _;\n        }\n    }\n\n    // payout the balance to the addresses with whom it should be split\n    function payout() nonReentrant whenHasBalance public {\n        uint split = this.balance / between.length;\n        uint leftover = this.balance % between.length;\n\n        for (uint i = 0; i < between.length; i++) {\n            between[i].transfer(split + (i == 0 ? leftover : 0));\n        }\n    }\n\n    function () payable public {}\n}\n",
  "sourcePath": "/Users/moodysalem/Projects/contracts/contracts/Splitter.sol",
  "compiler": {
    "name": "solc",
    "version": "0.4.18+commit.9cf6e910.Emscripten.clang"
  },
  "schemaVersion": "1.0.1",
  "updatedAt": "2018-01-14T14:08:21.277Z"
}