{
  "contractName": "Squares",
  "abi": [
    {
      "constant": true,
      "inputs": [
        {
          "name": "",
          "type": "address"
        },
        {
          "name": "",
          "type": "uint256"
        },
        {
          "name": "",
          "type": "uint256"
        }
      ],
      "name": "totalSquareStakesByUser",
      "outputs": [
        {
          "name": "",
          "type": "uint256"
        }
      ],
      "payable": false,
      "stateMutability": "view",
      "type": "function"
    },
    {
      "constant": true,
      "inputs": [
        {
          "name": "",
          "type": "address"
        }
      ],
      "name": "totalUserStakes",
      "outputs": [
        {
          "name": "",
          "type": "uint256"
        }
      ],
      "payable": false,
      "stateMutability": "view",
      "type": "function"
    },
    {
      "constant": false,
      "inputs": [
        {
          "name": "home",
          "type": "uint256"
        },
        {
          "name": "away",
          "type": "uint256"
        }
      ],
      "name": "bet",
      "outputs": [],
      "payable": true,
      "stateMutability": "payable",
      "type": "function"
    },
    {
      "constant": true,
      "inputs": [],
      "name": "oracle",
      "outputs": [
        {
          "name": "",
          "type": "address"
        }
      ],
      "payable": false,
      "stateMutability": "view",
      "type": "function"
    },
    {
      "constant": true,
      "inputs": [
        {
          "name": "",
          "type": "uint256"
        },
        {
          "name": "",
          "type": "uint256"
        }
      ],
      "name": "totalSquareStakes",
      "outputs": [
        {
          "name": "",
          "type": "uint256"
        }
      ],
      "payable": false,
      "stateMutability": "view",
      "type": "function"
    },
    {
      "constant": true,
      "inputs": [],
      "name": "totalStakes",
      "outputs": [
        {
          "name": "",
          "type": "uint256"
        }
      ],
      "payable": false,
      "stateMutability": "view",
      "type": "function"
    },
    {
      "constant": false,
      "inputs": [
        {
          "name": "home",
          "type": "uint256"
        },
        {
          "name": "away",
          "type": "uint256"
        },
        {
          "name": "donationPercentage",
          "type": "uint256"
        }
      ],
      "name": "collectWinnings",
      "outputs": [],
      "payable": false,
      "stateMutability": "nonpayable",
      "type": "function"
    },
    {
      "constant": true,
      "inputs": [
        {
          "name": "user",
          "type": "address"
        },
        {
          "name": "home",
          "type": "uint256"
        },
        {
          "name": "away",
          "type": "uint256"
        }
      ],
      "name": "getWinnings",
      "outputs": [
        {
          "name": "winnings",
          "type": "uint256"
        }
      ],
      "payable": false,
      "stateMutability": "view",
      "type": "function"
    },
    {
      "constant": true,
      "inputs": [],
      "name": "developer",
      "outputs": [
        {
          "name": "",
          "type": "address"
        }
      ],
      "payable": false,
      "stateMutability": "view",
      "type": "function"
    },
    {
      "constant": true,
      "inputs": [],
      "name": "currentTime",
      "outputs": [
        {
          "name": "",
          "type": "uint256"
        }
      ],
      "payable": false,
      "stateMutability": "view",
      "type": "function"
    },
    {
      "constant": true,
      "inputs": [],
      "name": "GAME_START_TIME",
      "outputs": [
        {
          "name": "",
          "type": "uint256"
        }
      ],
      "payable": false,
      "stateMutability": "view",
      "type": "function"
    },
    {
      "constant": true,
      "inputs": [
        {
          "name": "voter",
          "type": "address"
        },
        {
          "name": "asOfBlock",
          "type": "uint256"
        }
      ],
      "name": "getVoterStakes",
      "outputs": [
        {
          "name": "",
          "type": "uint256"
        }
      ],
      "payable": false,
      "stateMutability": "view",
      "type": "function"
    },
    {
      "inputs": [
        {
          "name": "_oracle",
          "type": "address"
        },
        {
          "name": "_developer",
          "type": "address"
        }
      ],
      "payable": false,
      "stateMutability": "nonpayable",
      "type": "constructor"
    },
    {
      "anonymous": false,
      "inputs": [
        {
          "indexed": true,
          "name": "better",
          "type": "address"
        },
        {
          "indexed": true,
          "name": "home",
          "type": "uint256"
        },
        {
          "indexed": true,
          "name": "away",
          "type": "uint256"
        },
        {
          "indexed": false,
          "name": "stake",
          "type": "uint256"
        }
      ],
      "name": "LogBet",
      "type": "event"
    },
    {
      "anonymous": false,
      "inputs": [
        {
          "indexed": true,
          "name": "winner",
          "type": "address"
        },
        {
          "indexed": false,
          "name": "payout",
          "type": "uint256"
        },
        {
          "indexed": false,
          "name": "donation",
          "type": "uint256"
        }
      ],
      "name": "LogPayout",
      "type": "event"
    }
  ],
  "bytecode": "0x6060604052341561000f57600080fd5b604051604080610db483398101604052808051906020019091908051906020019091905050816000806101000a81548173ffffffffffffffffffffffffffffffffffffffff021916908373ffffffffffffffffffffffffffffffffffffffff16021790555080600160006101000a81548173ffffffffffffffffffffffffffffffffffffffff021916908373ffffffffffffffffffffffffffffffffffffffff1602179055505050610cee806100c66000396000f3006060604052600436106100ba576000357c0100000000000000000000000000000000000000000000000000000000900463ffffffff1680633eb2cb02146100bf5780634543754f1461011e5780636ffcc7191461016b5780637dc0d1d01461018c57806396a69d04146101e1578063bf9befb114610221578063c179186e1461024a578063c7ebc8fe1461027f578063ca4b208b146102de578063d18e81b314610333578063ebb855021461035c578063fb4460dd14610385575b600080fd5b34156100ca57600080fd5b610108600480803573ffffffffffffffffffffffffffffffffffffffff169060200190919080359060200190919080359060200190919050506103db565b6040518082815260200191505060405180910390f35b341561012957600080fd5b610155600480803573ffffffffffffffffffffffffffffffffffffffff16906020019091905050610414565b6040518082815260200191505060405180910390f35b61018a600480803590602001909190803590602001909190505061042c565b005b341561019757600080fd5b61019f6106c6565b604051808273ffffffffffffffffffffffffffffffffffffffff1673ffffffffffffffffffffffffffffffffffffffff16815260200191505060405180910390f35b34156101ec57600080fd5b61020b60048080359060200190919080359060200190919050506106eb565b6040518082815260200191505060405180910390f35b341561022c57600080fd5b610234610717565b6040518082815260200191505060405180910390f35b341561025557600080fd5b61027d600480803590602001909190803590602001909190803590602001909190505061071d565b005b341561028a57600080fd5b6102c8600480803573ffffffffffffffffffffffffffffffffffffffff169060200190919080359060200190919080359060200190919050506109fe565b6040518082815260200191505060405180910390f35b34156102e957600080fd5b6102f1610b9c565b604051808273ffffffffffffffffffffffffffffffffffffffff1673ffffffffffffffffffffffffffffffffffffffff16815260200191505060405180910390f35b341561033e57600080fd5b610346610bc2565b6040518082815260200191505060405180910390f35b341561036757600080fd5b61036f610bca565b6040518082815260200191505060405180910390f35b341561039057600080fd5b6103c5600480803573ffffffffffffffffffffffffffffffffffffffff16906020019091908035906020019091905050610bd2565b6040518082815260200191505060405180910390f35b600260205282600052604060002082600a811015156103f657fe5b600a020181600a8110151561040757fe5b0160009250925050505481565b60676020528060005260406000206000915090505481565b60008282600082101580156104415750600a82105b151561044c57600080fd5b6000811015801561045d5750600a81105b151561046857600080fd5b60003411151561047757600080fd5b635a779778610484610bc2565b10151561049057600080fd5b3492506104a883606854610c1c90919063ffffffff16565b60688190555061050083606760003373ffffffffffffffffffffffffffffffffffffffff1673ffffffffffffffffffffffffffffffffffffffff16815260200190815260200160002054610c1c90919063ffffffff16565b606760003373ffffffffffffffffffffffffffffffffffffffff1673ffffffffffffffffffffffffffffffffffffffff168152602001908152602001600020819055506105b483600260003373ffffffffffffffffffffffffffffffffffffffff1673ffffffffffffffffffffffffffffffffffffffff16815260200190815260200160002087600a8110151561059357fe5b600a020186600a811015156105a457fe5b0154610c1c90919063ffffffff16565b600260003373ffffffffffffffffffffffffffffffffffffffff1673ffffffffffffffffffffffffffffffffffffffff16815260200190815260200160002086600a8110151561060057fe5b600a020185600a8110151561061157fe5b018190555061064a83600387600a8110151561062957fe5b600a020186600a8110151561063a57fe5b0154610c1c90919063ffffffff16565b600386600a8110151561065957fe5b600a020185600a8110151561066a57fe5b018190555083853373ffffffffffffffffffffffffffffffffffffffff167f063f4540040cf99a22f577ef321c170763020e6277e47275ed9b3d17ec14e13d866040518082815260200191505060405180910390a45050505050565b6000809054906101000a900473ffffffffffffffffffffffffffffffffffffffff1681565b600382600a811015156106fa57fe5b600a020181600a8110151561070b57fe5b01600091509150505481565b60685481565b60008060008585600082101580156107355750600a82105b151561074057600080fd5b600081101580156107515750600a81105b151561075c57600080fd5b6000809054906101000a900473ffffffffffffffffffffffffffffffffffffffff1673ffffffffffffffffffffffffffffffffffffffff16638d4e40836000604051602001526040518163ffffffff167c0100000000000000000000000000000000000000000000000000000000028152600401602060405180830381600087803b15156107e957600080fd5b6102c65a03f115156107fa57600080fd5b50505060405180519050151561080f57600080fd5b6064861115151561081f57600080fd5b61084a3073ffffffffffffffffffffffffffffffffffffffff1631610845338b8b6109fe565b610c3a565b945060008511151561085b57600080fd5b61088160646108738888610c5390919063ffffffff16565b610c8e90919063ffffffff16565b93506108968486610ca990919063ffffffff16565b92506000600260003373ffffffffffffffffffffffffffffffffffffffff1673ffffffffffffffffffffffffffffffffffffffff16815260200190815260200160002089600a811015156108e657fe5b600a020188600a811015156108f757fe5b01819055503373ffffffffffffffffffffffffffffffffffffffff166108fc849081150290604051600060405180830381858888f19350505050151561093c57600080fd5b600160009054906101000a900473ffffffffffffffffffffffffffffffffffffffff1673ffffffffffffffffffffffffffffffffffffffff166108fc859081150290604051600060405180830381858888f19350505050151561099e57600080fd5b3373ffffffffffffffffffffffffffffffffffffffff167faecbaaa1535c52061435fdbf9b86004b94dead30c501cc73f8972621f42fd26a8486604051808381526020018281526020019250505060405180910390a25050505050505050565b60008060008060009054906101000a900473ffffffffffffffffffffffffffffffffffffffff1673ffffffffffffffffffffffffffffffffffffffff1663d5a8487f86866000604051604001526040518363ffffffff167c010000000000000000000000000000000000000000000000000000000002815260040180838152602001828152602001925050506040805180830381600087803b1515610aa257600080fd5b6102c65a03f11515610ab357600080fd5b5050506040518051906020018051905091509150610b91600386600a81101515610ad957fe5b600a020185600a81101515610aea57fe5b0154610b8383610b7586610b67606854600260008f73ffffffffffffffffffffffffffffffffffffffff1673ffffffffffffffffffffffffffffffffffffffff1681526020019081526020016000208d600a81101515610b4657fe5b600a02018c600a81101515610b5757fe5b0154610c5390919063ffffffff16565b610c5390919063ffffffff16565b610c8e90919063ffffffff16565b610c8e90919063ffffffff16565b925050509392505050565b600160009054906101000a900473ffffffffffffffffffffffffffffffffffffffff1681565b600042905090565b635a77977881565b6000606760008473ffffffffffffffffffffffffffffffffffffffff1673ffffffffffffffffffffffffffffffffffffffff16815260200190815260200160002054905092915050565b6000808284019050838110151515610c3057fe5b8091505092915050565b6000818310610c495781610c4b565b825b905092915050565b6000806000841415610c685760009150610c87565b8284029050828482811515610c7957fe5b04141515610c8357fe5b8091505b5092915050565b6000808284811515610c9c57fe5b0490508091505092915050565b6000828211151515610cb757fe5b8183039050929150505600a165627a7a72305820fbcfe0349674fa6f3d16823c97eec4930f20e2e9f92d972bccd4a348b25a688d0029",
  "source": "pragma solidity 0.4.18;\n\nimport 'zeppelin-solidity/contracts/ownership/Ownable.sol';\nimport 'zeppelin-solidity/contracts/math/SafeMath.sol';\nimport 'zeppelin-solidity/contracts/math/Math.sol';\nimport './interfaces/IScoreOracle.sol';\nimport './interfaces/IKnowsVoterStakes.sol';\nimport './KnowsSquares.sol';\nimport './KnowsConstants.sol';\nimport './KnowsTime.sol';\n\ncontract Squares is KnowsConstants, KnowsTime, KnowsSquares, IKnowsVoterStakes {\n    using SafeMath for uint;\n\n    function Squares(IScoreOracle _oracle, address _developer) public {\n        oracle = _oracle;\n        developer = _developer;\n    }\n\n    // the oracle for the scores\n    IScoreOracle public oracle;\n\n    // the developer of the smart contract\n    address public developer;\n\n    // staked ether for each player and each box\n    mapping(address => uint[10][10]) public totalSquareStakesByUser;\n\n    // total stakes for each box\n    uint[10][10] public totalSquareStakes;\n\n    // the total stakes for each user\n    mapping(address => uint) public totalUserStakes;\n\n    // the overall total of money stakes in the grid\n    uint public totalStakes;\n\n    event LogBet(address indexed better, uint indexed home, uint indexed away, uint stake);\n\n    function bet(uint home, uint away) public payable isValidSquare(home, away) {\n        require(msg.value > 0);\n        require(currentTime() < GAME_START_TIME);\n\n        // the stake is the message value\n        uint stake = msg.value;\n\n        // add the stake amount to the overall total\n        totalStakes = totalStakes.add(stake);\n\n        // add their stake to the total user stakes\n        totalUserStakes[msg.sender] = totalUserStakes[msg.sender].add(stake);\n\n        // add their stake to their own accounting\n        totalSquareStakesByUser[msg.sender][home][away] = totalSquareStakesByUser[msg.sender][home][away].add(stake);\n\n        // add it to the total stakes as well\n        totalSquareStakes[home][away] = totalSquareStakes[home][away].add(stake);\n\n        LogBet(msg.sender, home, away, stake);\n    }\n\n    event LogPayout(address indexed winner, uint payout, uint donation);\n\n    // calculate the winnings owed for a user's bet on a particular square\n    function getWinnings(address user, uint home, uint away) public view returns (uint winnings) {\n        // the square wins and the total wins are used to calculate\n        // the percentage of the total stake that the square is worth\n        var (numSquareWins, totalWins) = oracle.getSquareWins(home, away);\n\n        return totalSquareStakesByUser[user][home][away]\n            .mul(totalStakes)\n            .mul(numSquareWins)\n            .div(totalWins)\n            .div(totalSquareStakes[home][away]);\n    }\n\n    // called by the winners to collect winnings for a box\n    function collectWinnings(uint home, uint away, uint donationPercentage) public isValidSquare(home, away) {\n        // score must be finalized\n        require(oracle.isFinalized());\n\n        // optional donation\n        require(donationPercentage <= 100);\n\n        // we cannot pay out more than we have\n        // but we should not prevent paying out what we do have\n        // this should never happen since integer math always truncates, we should only end up with too much\n        // however it's worth writing in the protection\n        uint winnings = Math.min256(this.balance, getWinnings(msg.sender, home, away));\n\n        require(winnings > 0);\n\n        // the donation amount\n        uint donation = winnings.mul(donationPercentage).div(100);\n\n        uint payout = winnings.sub(donation);\n\n        // clear their stakes - can only collect once\n        totalSquareStakesByUser[msg.sender][home][away] = 0;\n\n        msg.sender.transfer(payout);\n        developer.transfer(donation);\n\n        LogPayout(msg.sender, payout, donation);\n    }\n\n    function getVoterStakes(address voter, uint asOfBlock) public view returns (uint) {\n        return totalUserStakes[voter];\n    }\n}\n",
  "sourcePath": "/home/moody/projects/ethersquares-contracts/contracts/Squares.sol",
  "compiler": {
    "name": "solc",
    "version": "0.4.18+commit.9cf6e910.Emscripten.clang"
  },
  "schemaVersion": "1.0.1",
  "updatedAt": "2018-01-18T04:36:20.507Z"
}